{
  "_format": "hh-sol-artifact-1",
  "contractName": "POAPNFT",
  "sourceName": "contracts/poap.sol",
  "abi": [
    {
      "inputs": [
        {
          "internalType": "bool",
          "name": "_soulbound",
          "type": "bool"
        }
      ],
      "stateMutability": "nonpayable",
      "type": "constructor"
    },
    {
      "inputs": [
        {
          "internalType": "address",
          "name": "sender",
          "type": "address"
        },
        {
          "internalType": "uint256",
          "name": "tokenId",
          "type": "uint256"
        },
        {
          "internalType": "address",
          "name": "owner",
          "type": "address"
        }
      ],
      "name": "ERC721IncorrectOwner",
      "type": "error"
    },
    {
      "inputs": [
        {
          "internalType": "address",
          "name": "operator",
          "type": "address"
        },
        {
          "internalType": "uint256",
          "name": "tokenId",
          "type": "uint256"
        }
      ],
      "name": "ERC721InsufficientApproval",
      "type": "error"
    },
    {
      "inputs": [
        {
          "internalType": "address",
          "name": "approver",
          "type": "address"
        }
      ],
      "name": "ERC721InvalidApprover",
      "type": "error"
    },
    {
      "inputs": [
        {
          "internalType": "address",
          "name": "operator",
          "type": "address"
        }
      ],
      "name": "ERC721InvalidOperator",
      "type": "error"
    },
    {
      "inputs": [
        {
          "internalType": "address",
          "name": "owner",
          "type": "address"
        }
      ],
      "name": "ERC721InvalidOwner",
      "type": "error"
    },
    {
      "inputs": [
        {
          "internalType": "address",
          "name": "receiver",
          "type": "address"
        }
      ],
      "name": "ERC721InvalidReceiver",
      "type": "error"
    },
    {
      "inputs": [
        {
          "internalType": "address",
          "name": "sender",
          "type": "address"
        }
      ],
      "name": "ERC721InvalidSender",
      "type": "error"
    },
    {
      "inputs": [
        {
          "internalType": "uint256",
          "name": "tokenId",
          "type": "uint256"
        }
      ],
      "name": "ERC721NonexistentToken",
      "type": "error"
    },
    {
      "inputs": [
        {
          "internalType": "address",
          "name": "owner",
          "type": "address"
        }
      ],
      "name": "OwnableInvalidOwner",
      "type": "error"
    },
    {
      "inputs": [
        {
          "internalType": "address",
          "name": "account",
          "type": "address"
        }
      ],
      "name": "OwnableUnauthorizedAccount",
      "type": "error"
    },
    {
      "anonymous": false,
      "inputs": [
        {
          "indexed": true,
          "internalType": "address",
          "name": "owner",
          "type": "address"
        },
        {
          "indexed": true,
          "internalType": "address",
          "name": "approved",
          "type": "address"
        },
        {
          "indexed": true,
          "internalType": "uint256",
          "name": "tokenId",
          "type": "uint256"
        }
      ],
      "name": "Approval",
      "type": "event"
    },
    {
      "anonymous": false,
      "inputs": [
        {
          "indexed": true,
          "internalType": "address",
          "name": "owner",
          "type": "address"
        },
        {
          "indexed": true,
          "internalType": "address",
          "name": "operator",
          "type": "address"
        },
        {
          "indexed": false,
          "internalType": "bool",
          "name": "approved",
          "type": "bool"
        }
      ],
      "name": "ApprovalForAll",
      "type": "event"
    },
    {
      "anonymous": false,
      "inputs": [
        {
          "indexed": false,
          "internalType": "uint256",
          "name": "_fromTokenId",
          "type": "uint256"
        },
        {
          "indexed": false,
          "internalType": "uint256",
          "name": "_toTokenId",
          "type": "uint256"
        }
      ],
      "name": "BatchMetadataUpdate",
      "type": "event"
    },
    {
      "anonymous": false,
      "inputs": [
        {
          "indexed": false,
          "internalType": "uint256",
          "name": "_tokenId",
          "type": "uint256"
        }
      ],
      "name": "MetadataUpdate",
      "type": "event"
    },
    {
      "anonymous": false,
      "inputs": [
        {
          "indexed": true,
          "internalType": "address",
          "name": "previousOwner",
          "type": "address"
        },
        {
          "indexed": true,
          "internalType": "address",
          "name": "newOwner",
          "type": "address"
        }
      ],
      "name": "OwnershipTransferred",
      "type": "event"
    },
    {
      "anonymous": false,
      "inputs": [
        {
          "indexed": true,
          "internalType": "address",
          "name": "from",
          "type": "address"
        },
        {
          "indexed": true,
          "internalType": "address",
          "name": "to",
          "type": "address"
        },
        {
          "indexed": true,
          "internalType": "uint256",
          "name": "tokenId",
          "type": "uint256"
        }
      ],
      "name": "Transfer",
      "type": "event"
    },
    {
      "inputs": [
        {
          "internalType": "address",
          "name": "to",
          "type": "address"
        },
        {
          "internalType": "uint256",
          "name": "tokenId",
          "type": "uint256"
        }
      ],
      "name": "approve",
      "outputs": [],
      "stateMutability": "nonpayable",
      "type": "function"
    },
    {
      "inputs": [
        {
          "internalType": "address",
          "name": "owner",
          "type": "address"
        }
      ],
      "name": "balanceOf",
      "outputs": [
        {
          "internalType": "uint256",
          "name": "",
          "type": "uint256"
        }
      ],
      "stateMutability": "view",
      "type": "function"
    },
    {
      "inputs": [
        {
          "internalType": "uint256",
          "name": "tokenId",
          "type": "uint256"
        }
      ],
      "name": "getApproved",
      "outputs": [
        {
          "internalType": "address",
          "name": "",
          "type": "address"
        }
      ],
      "stateMutability": "view",
      "type": "function"
    },
    {
      "inputs": [
        {
          "internalType": "address",
          "name": "owner",
          "type": "address"
        },
        {
          "internalType": "address",
          "name": "operator",
          "type": "address"
        }
      ],
      "name": "isApprovedForAll",
      "outputs": [
        {
          "internalType": "bool",
          "name": "",
          "type": "bool"
        }
      ],
      "stateMutability": "view",
      "type": "function"
    },
    {
      "inputs": [
        {
          "internalType": "address",
          "name": "to",
          "type": "address"
        },
        {
          "internalType": "string",
          "name": "metadataURI",
          "type": "string"
        }
      ],
      "name": "mintPOAP",
      "outputs": [
        {
          "internalType": "uint256",
          "name": "",
          "type": "uint256"
        }
      ],
      "stateMutability": "nonpayable",
      "type": "function"
    },
    {
      "inputs": [],
      "name": "name",
      "outputs": [
        {
          "internalType": "string",
          "name": "",
          "type": "string"
        }
      ],
      "stateMutability": "view",
      "type": "function"
    },
    {
      "inputs": [],
      "name": "nextId",
      "outputs": [
        {
          "internalType": "uint256",
          "name": "",
          "type": "uint256"
        }
      ],
      "stateMutability": "view",
      "type": "function"
    },
    {
      "inputs": [],
      "name": "owner",
      "outputs": [
        {
          "internalType": "address",
          "name": "",
          "type": "address"
        }
      ],
      "stateMutability": "view",
      "type": "function"
    },
    {
      "inputs": [
        {
          "internalType": "uint256",
          "name": "tokenId",
          "type": "uint256"
        }
      ],
      "name": "ownerOf",
      "outputs": [
        {
          "internalType": "address",
          "name": "",
          "type": "address"
        }
      ],
      "stateMutability": "view",
      "type": "function"
    },
    {
      "inputs": [],
      "name": "renounceOwnership",
      "outputs": [],
      "stateMutability": "nonpayable",
      "type": "function"
    },
    {
      "inputs": [
        {
          "internalType": "address",
          "name": "from",
          "type": "address"
        },
        {
          "internalType": "address",
          "name": "to",
          "type": "address"
        },
        {
          "internalType": "uint256",
          "name": "tokenId",
          "type": "uint256"
        }
      ],
      "name": "safeTransferFrom",
      "outputs": [],
      "stateMutability": "nonpayable",
      "type": "function"
    },
    {
      "inputs": [
        {
          "internalType": "address",
          "name": "from",
          "type": "address"
        },
        {
          "internalType": "address",
          "name": "to",
          "type": "address"
        },
        {
          "internalType": "uint256",
          "name": "tokenId",
          "type": "uint256"
        },
        {
          "internalType": "bytes",
          "name": "data",
          "type": "bytes"
        }
      ],
      "name": "safeTransferFrom",
      "outputs": [],
      "stateMutability": "nonpayable",
      "type": "function"
    },
    {
      "inputs": [
        {
          "internalType": "address",
          "name": "operator",
          "type": "address"
        },
        {
          "internalType": "bool",
          "name": "approved",
          "type": "bool"
        }
      ],
      "name": "setApprovalForAll",
      "outputs": [],
      "stateMutability": "nonpayable",
      "type": "function"
    },
    {
      "inputs": [
        {
          "internalType": "uint256",
          "name": "tokenId",
          "type": "uint256"
        },
        {
          "internalType": "string",
          "name": "tokenURI_",
          "type": "string"
        }
      ],
      "name": "setTokenURI",
      "outputs": [],
      "stateMutability": "nonpayable",
      "type": "function"
    },
    {
      "inputs": [],
      "name": "soulbound",
      "outputs": [
        {
          "internalType": "bool",
          "name": "",
          "type": "bool"
        }
      ],
      "stateMutability": "view",
      "type": "function"
    },
    {
      "inputs": [
        {
          "internalType": "bytes4",
          "name": "interfaceId",
          "type": "bytes4"
        }
      ],
      "name": "supportsInterface",
      "outputs": [
        {
          "internalType": "bool",
          "name": "",
          "type": "bool"
        }
      ],
      "stateMutability": "view",
      "type": "function"
    },
    {
      "inputs": [],
      "name": "symbol",
      "outputs": [
        {
          "internalType": "string",
          "name": "",
          "type": "string"
        }
      ],
      "stateMutability": "view",
      "type": "function"
    },
    {
      "inputs": [
        {
          "internalType": "uint256",
          "name": "tokenId",
          "type": "uint256"
        }
      ],
      "name": "tokenURI",
      "outputs": [
        {
          "internalType": "string",
          "name": "",
          "type": "string"
        }
      ],
      "stateMutability": "view",
      "type": "function"
    },
    {
      "inputs": [
        {
          "internalType": "address",
          "name": "from",
          "type": "address"
        },
        {
          "internalType": "address",
          "name": "to",
          "type": "address"
        },
        {
          "internalType": "uint256",
          "name": "tokenId",
          "type": "uint256"
        }
      ],
      "name": "transferFrom",
      "outputs": [],
      "stateMutability": "nonpayable",
      "type": "function"
    },
    {
      "inputs": [
        {
          "internalType": "address",
          "name": "newOwner",
          "type": "address"
        }
      ],
      "name": "transferOwnership",
      "outputs": [],
      "stateMutability": "nonpayable",
      "type": "function"
    }
  ],
  "bytecode": "0x6080604052600160085534801561001557600080fd5b5060405161185238038061185283398101604081905261003491610135565b336040518060400160405280600a8152602001690417661726120504f41560b41b81525060405180604001604052806005815260200164041504f41560dc1b815250816000908161008591906101fd565b50600161009282826101fd565b5050506001600160a01b0381166100c357604051631e4fbdf760e01b81526000600482015260240160405180910390fd5b6100cc816100e3565b506009805460ff19169115159190911790556102bb565b600780546001600160a01b038381166001600160a01b0319831681179093556040519116919082907f8be0079c531659141344cd1fd0a4f28419497f9722a3daafe3b4186f6b6457e090600090a35050565b60006020828403121561014757600080fd5b8151801515811461015757600080fd5b9392505050565b634e487b7160e01b600052604160045260246000fd5b600181811c9082168061018857607f821691505b6020821081036101a857634e487b7160e01b600052602260045260246000fd5b50919050565b601f8211156101f857806000526020600020601f840160051c810160208510156101d55750805b601f840160051c820191505b818110156101f557600081556001016101e1565b50505b505050565b81516001600160401b038111156102165761021661015e565b61022a816102248454610174565b846101ae565b6020601f82116001811461025e57600083156102465750848201515b600019600385901b1c1916600184901b1784556101f5565b600084815260208120601f198516915b8281101561028e578785015182556020948501946001909201910161026e565b50848210156102ac5786840151600019600387901b60f8161c191681555b50505050600190811b01905550565b611588806102ca6000396000f3fe608060405234801561001057600080fd5b506004361061012c5760003560e01c806370a08231116100ad578063a22cb46511610071578063a22cb46514610265578063b88d4fde14610278578063c87b56dd1461028b578063e985e9c51461029e578063f2fde38b146102b157600080fd5b806370a082311461021e578063715018a6146102315780638c19b4d8146102395780638da5cb5b1461024c57806395d89b411461025d57600080fd5b8063162094c4116100f4578063162094c4146101bb57806323b872dd146101ce57806342842e0e146101e157806361b8ce8c146101f45780636352211e1461020b57600080fd5b806301ffc9a71461013157806306fdde0314610159578063081812fc1461016e578063095ea7b3146101995780630fad0f51146101ae575b600080fd5b61014461013f366004611011565b6102c4565b60405190151581526020015b60405180910390f35b6101616102e4565b604051610150919061107e565b61018161017c366004611091565b610376565b6040516001600160a01b039091168152602001610150565b6101ac6101a73660046110c6565b61039f565b005b6009546101449060ff1681565b6101ac6101c93660046111a0565b6103ae565b6101ac6101dc3660046111e7565b6103c0565b6101ac6101ef3660046111e7565b610450565b6101fd60085481565b604051908152602001610150565b610181610219366004611091565b610470565b6101fd61022c366004611224565b61047b565b6101ac6104c3565b6101fd61024736600461123f565b6104d7565b6007546001600160a01b0316610181565b610161610513565b6101ac610273366004611277565b610522565b6101ac6102863660046112b3565b61052d565b610161610299366004611091565b610545565b6101446102ac36600461132f565b610550565b6101ac6102bf366004611224565b61057e565b60006102cf826105bc565b806102de57506102de8261060c565b92915050565b6060600080546102f390611362565b80601f016020809104026020016040519081016040528092919081815260200182805461031f90611362565b801561036c5780601f106103415761010080835404028352916020019161036c565b820191906000526020600020905b81548152906001019060200180831161034f57829003601f168201915b5050505050905090565b600061038182610631565b506000828152600460205260409020546001600160a01b03166102de565b6103aa82823361066a565b5050565b6103b6610677565b6103aa82826106a4565b6001600160a01b0382166103ef57604051633250574960e11b8152600060048201526024015b60405180910390fd5b60006103fc8383336106f4565b9050836001600160a01b0316816001600160a01b03161461044a576040516364283d7b60e01b81526001600160a01b03808616600483015260248201849052821660448201526064016103e6565b50505050565b61046b8383836040518060200160405280600081525061052d565b505050565b60006102de82610631565b60006001600160a01b0382166104a7576040516322718ad960e21b8152600060048201526024016103e6565b506001600160a01b031660009081526003602052604090205490565b6104cb610677565b6104d5600061079a565b565b60006104e1610677565b60088054600091826104f28361139c565b91905055905061050284826107ec565b61050c81846106a4565b9392505050565b6060600180546102f390611362565b6103aa338383610806565b6105388484846103c0565b61044a33858585856108a5565b60606102de826109d0565b6001600160a01b03918216600090815260056020908152604080832093909416825291909152205460ff1690565b610586610677565b6001600160a01b0381166105b057604051631e4fbdf760e01b8152600060048201526024016103e6565b6105b98161079a565b50565b60006001600160e01b031982166380ac58cd60e01b14806105ed57506001600160e01b03198216635b5e139f60e01b145b806102de57506301ffc9a760e01b6001600160e01b03198316146102de565b60006001600160e01b03198216632483248360e11b14806102de57506102de826105bc565b6000818152600260205260408120546001600160a01b0316806102de57604051637e27328960e01b8152600481018490526024016103e6565b61046b8383836001610ad9565b6007546001600160a01b031633146104d55760405163118cdaa760e01b81523360048201526024016103e6565b60008281526006602052604090206106bc828261140a565b506040518281527ff8e1a15aba9398e019f0b49df1a4fde98ee17ae345cb5f6b5e2c27f5033e8ce79060200160405180910390a15050565b60006001600160a01b03841615610787576000838152600260205260408120546001600160a01b031660095490915060ff16158061073957506001600160a01b038116155b6107855760405162461bcd60e51b815260206004820152601b60248201527f536f756c626f756e643a206e6f6e2d7472616e7366657261626c65000000000060448201526064016103e6565b505b610792848484610bdf565b949350505050565b600780546001600160a01b038381166001600160a01b0319831681179093556040519116919082907f8be0079c531659141344cd1fd0a4f28419497f9722a3daafe3b4186f6b6457e090600090a35050565b6103aa828260405180602001604052806000815250610cd8565b6001600160a01b03821661083857604051630b61174360e31b81526001600160a01b03831660048201526024016103e6565b6001600160a01b03838116600081815260056020908152604080832094871680845294825291829020805460ff191686151590811790915591519182527f17307eab39ab6107e8899845ad3d59bd9653f200f220920489ca2b5937696c31910160405180910390a3505050565b6001600160a01b0383163b156109c957604051630a85bd0160e11b81526001600160a01b0384169063150b7a02906108e79088908890879087906004016114c9565b6020604051808303816000875af1925050508015610922575060408051601f3d908101601f1916820190925261091f91810190611506565b60015b61098b573d808015610950576040519150601f19603f3d011682016040523d82523d6000602084013e610955565b606091505b50805160000361098357604051633250574960e11b81526001600160a01b03851660048201526024016103e6565b805160208201fd5b6001600160e01b03198116630a85bd0160e11b146109c757604051633250574960e11b81526001600160a01b03851660048201526024016103e6565b505b5050505050565b60606109db82610631565b50600082815260066020526040812080546109f590611362565b80601f0160208091040260200160405190810160405280929190818152602001828054610a2190611362565b8015610a6e5780601f10610a4357610100808354040283529160200191610a6e565b820191906000526020600020905b815481529060010190602001808311610a5157829003601f168201915b505050505090506000610a8c60408051602081019091526000815290565b90508051600003610a9e575092915050565b815115610ad0578082604051602001610ab8929190611523565b60405160208183030381529060405292505050919050565b61079284610cf0565b8080610aed57506001600160a01b03821615155b15610baf576000610afd84610631565b90506001600160a01b03831615801590610b295750826001600160a01b0316816001600160a01b031614155b8015610b3c5750610b3a8184610550565b155b15610b655760405163a9fbf51f60e01b81526001600160a01b03841660048201526024016103e6565b8115610bad5783856001600160a01b0316826001600160a01b03167f8c5be1e5ebec7d5bd14f71427d1e84f3dd0314c0f7b2291e5b200ac8c7c3b92560405160405180910390a45b505b5050600090815260046020526040902080546001600160a01b0319166001600160a01b0392909216919091179055565b6000828152600260205260408120546001600160a01b0390811690831615610c0c57610c0c818486610d64565b6001600160a01b03811615610c4a57610c29600085600080610ad9565b6001600160a01b038116600090815260036020526040902080546000190190555b6001600160a01b03851615610c79576001600160a01b0385166000908152600360205260409020805460010190555b60008481526002602052604080822080546001600160a01b0319166001600160a01b0389811691821790925591518793918516917fddf252ad1be2c89b69c2b068fc378daa952ba7f163c4a11628f55a4df523b3ef91a4949350505050565b610ce28383610dc8565b61046b3360008585856108a5565b6060610cfb82610631565b506000610d1360408051602081019091526000815290565b90506000815111610d33576040518060200160405280600081525061050c565b80610d3d84610e2d565b604051602001610d4e929190611523565b6040516020818303038152906040529392505050565b610d6f838383610ec0565b61046b576001600160a01b038316610d9d57604051637e27328960e01b8152600481018290526024016103e6565b60405163177e802f60e01b81526001600160a01b0383166004820152602481018290526044016103e6565b6001600160a01b038216610df257604051633250574960e11b8152600060048201526024016103e6565b6000610e00838360006106f4565b90506001600160a01b0381161561046b576040516339e3563760e11b8152600060048201526024016103e6565b60606000610e3a83610f23565b600101905060008167ffffffffffffffff811115610e5a57610e5a6110f0565b6040519080825280601f01601f191660200182016040528015610e84576020820181803683370190505b5090508181016020015b600019016f181899199a1a9b1b9c1cb0b131b232b360811b600a86061a8153600a8504945084610e8e57509392505050565b60006001600160a01b038316158015906107925750826001600160a01b0316846001600160a01b03161480610efa5750610efa8484610550565b806107925750506000908152600460205260409020546001600160a01b03908116911614919050565b60008072184f03e93ff9f4daa797ed6e38ed64bf6a1f0160401b8310610f625772184f03e93ff9f4daa797ed6e38ed64bf6a1f0160401b830492506040015b6d04ee2d6d415b85acef81000000008310610f8e576d04ee2d6d415b85acef8100000000830492506020015b662386f26fc100008310610fac57662386f26fc10000830492506010015b6305f5e1008310610fc4576305f5e100830492506008015b6127108310610fd857612710830492506004015b60648310610fea576064830492506002015b600a83106102de5760010192915050565b6001600160e01b0319811681146105b957600080fd5b60006020828403121561102357600080fd5b813561050c81610ffb565b60005b83811015611049578181015183820152602001611031565b50506000910152565b6000815180845261106a81602086016020860161102e565b601f01601f19169290920160200192915050565b60208152600061050c6020830184611052565b6000602082840312156110a357600080fd5b5035919050565b80356001600160a01b03811681146110c157600080fd5b919050565b600080604083850312156110d957600080fd5b6110e2836110aa565b946020939093013593505050565b634e487b7160e01b600052604160045260246000fd5b60008067ffffffffffffffff841115611121576111216110f0565b50604051601f19601f85018116603f0116810181811067ffffffffffffffff82111715611150576111506110f0565b60405283815290508082840185101561116857600080fd5b83836020830137600060208583010152509392505050565b600082601f83011261119157600080fd5b61050c83833560208501611106565b600080604083850312156111b357600080fd5b82359150602083013567ffffffffffffffff8111156111d157600080fd5b6111dd85828601611180565b9150509250929050565b6000806000606084860312156111fc57600080fd5b611205846110aa565b9250611213602085016110aa565b929592945050506040919091013590565b60006020828403121561123657600080fd5b61050c826110aa565b6000806040838503121561125257600080fd5b61125b836110aa565b9150602083013567ffffffffffffffff8111156111d157600080fd5b6000806040838503121561128a57600080fd5b611293836110aa565b9150602083013580151581146112a857600080fd5b809150509250929050565b600080600080608085870312156112c957600080fd5b6112d2856110aa565b93506112e0602086016110aa565b925060408501359150606085013567ffffffffffffffff81111561130357600080fd5b8501601f8101871361131457600080fd5b61132387823560208401611106565b91505092959194509250565b6000806040838503121561134257600080fd5b61134b836110aa565b9150611359602084016110aa565b90509250929050565b600181811c9082168061137657607f821691505b60208210810361139657634e487b7160e01b600052602260045260246000fd5b50919050565b6000600182016113bc57634e487b7160e01b600052601160045260246000fd5b5060010190565b601f82111561046b57806000526020600020601f840160051c810160208510156113ea5750805b601f840160051c820191505b818110156109c957600081556001016113f6565b815167ffffffffffffffff811115611424576114246110f0565b611438816114328454611362565b846113c3565b6020601f82116001811461146c57600083156114545750848201515b600019600385901b1c1916600184901b1784556109c9565b600084815260208120601f198516915b8281101561149c578785015182556020948501946001909201910161147c565b50848210156114ba5786840151600019600387901b60f8161c191681555b50505050600190811b01905550565b6001600160a01b03858116825284166020820152604081018390526080606082018190526000906114fc90830184611052565b9695505050505050565b60006020828403121561151857600080fd5b815161050c81610ffb565b6000835161153581846020880161102e565b83519083019061154981836020880161102e565b0194935050505056fea26469706673582212205481ea4a63e59e79a2a2d327b5de28028bdc55b8176ea441c8136b69e581895464736f6c634300081c0033",
  "linkReferences": {},
  "deployedLinkReferences": {}
}