{"abi":[{"type":"constructor","inputs":[{"name":"_mantleSigner","type":"address","internalType":"address"}],"stateMutability":"nonpayable"},{"type":"receive","stateMutability":"payable"},{"type":"function","name":"buyTicket","inputs":[{"name":"ticketId","type":"uint256","internalType":"uint256"}],"outputs":[],"stateMutability":"payable"},{"type":"function","name":"cancelListing","inputs":[{"name":"ticketId","type":"uint256","internalType":"uint256"}],"outputs":[],"stateMutability":"nonpayable"},{"type":"function","name":"checkInAndMintPOAP","inputs":[{"name":"ticketId","type":"uint256","internalType":"uint256"},{"name":"eventId","type":"uint256","internalType":"uint256"},{"name":"poapUri","type":"string","internalType":"string"},{"name":"timestamp","type":"uint256","internalType":"uint256"},{"name":"nonce","type":"uint256","internalType":"uint256"},{"name":"mantleSignature","type":"bytes","internalType":"bytes"}],"outputs":[{"name":"","type":"uint256","internalType":"uint256"}],"stateMutability":"nonpayable"},{"type":"function","name":"emergencyBurnTicket","inputs":[{"name":"ticketId","type":"uint256","internalType":"uint256"}],"outputs":[],"stateMutability":"nonpayable"},{"type":"function","name":"getTicketProvenance","inputs":[{"name":"ticketId","type":"uint256","internalType":"uint256"}],"outputs":[{"name":"","type":"address[]","internalType":"address[]"}],"stateMutability":"view"},{"type":"function","name":"listTicket","inputs":[{"name":"ticketId","type":"uint256","internalType":"uint256"},{"name":"price","type":"uint256","internalType":"uint256"}],"outputs":[],"stateMutability":"nonpayable"},{"type":"function","name":"listings","inputs":[{"name":"","type":"uint256","internalType":"uint256"}],"outputs":[{"name":"seller","type":"address","internalType":"address"},{"name":"price","type":"uint256","internalType":"uint256"},{"name":"active","type":"bool","internalType":"bool"}],"stateMutability":"view"},{"type":"function","name":"mantleSigner","inputs":[],"outputs":[{"name":"","type":"address","internalType":"address"}],"stateMutability":"view"},{"type":"function","name":"mintTicketWithMantle","inputs":[{"name":"to","type":"address","internalType":"address"},{"name":"uri","type":"string","internalType":"string"},{"name":"eventId","type":"uint256","internalType":"uint256"},{"name":"timestamp","type":"uint256","internalType":"uint256"},{"name":"nonce","type":"uint256","internalType":"uint256"},{"name":"mantleSignature","type":"bytes","internalType":"bytes"}],"outputs":[{"name":"","type":"uint256","internalType":"uint256"}],"stateMutability":"nonpayable"},{"type":"function","name":"owner","inputs":[],"outputs":[{"name":"","type":"address","internalType":"address"}],"stateMutability":"view"},{"type":"function","name":"poapSoulbound","inputs":[],"outputs":[{"name":"","type":"bool","internalType":"bool"}],"stateMutability":"view"},{"type":"function","name":"poaps","inputs":[],"outputs":[{"name":"","type":"address","internalType":"contract POAPNFT"}],"stateMutability":"view"},{"type":"function","name":"renounceOwnership","inputs":[],"outputs":[],"stateMutability":"nonpayable"},{"type":"function","name":"reputation","inputs":[{"name":"","type":"address","internalType":"address"}],"outputs":[{"name":"","type":"uint256","internalType":"uint256"}],"stateMutability":"view"},{"type":"function","name":"rules","inputs":[{"name":"","type":"uint256","internalType":"uint256"}],"outputs":[{"name":"organizer","type":"address","internalType":"address"},{"name":"maxResalePrice","type":"uint256","internalType":"uint256"},{"name":"maxTransfers","type":"uint16","internalType":"uint16"}],"stateMutability":"view"},{"type":"function","name":"setEventRules","inputs":[{"name":"eventId","type":"uint256","internalType":"uint256"},{"name":"organizer","type":"address","internalType":"address"},{"name":"maxResalePrice","type":"uint256","internalType":"uint256"},{"name":"maxTransfers","type":"uint16","internalType":"uint16"}],"outputs":[],"stateMutability":"nonpayable"},{"type":"function","name":"setMantleSigner","inputs":[{"name":"_s","type":"address","internalType":"address"}],"outputs":[],"stateMutability":"nonpayable"},{"type":"function","name":"setPOAPURI","inputs":[{"name":"poapId","type":"uint256","internalType":"uint256"},{"name":"uri","type":"string","internalType":"string"}],"outputs":[],"stateMutability":"nonpayable"},{"type":"function","name":"setReputation","inputs":[{"name":"who","type":"address","internalType":"address"},{"name":"score","type":"uint256","internalType":"uint256"}],"outputs":[],"stateMutability":"nonpayable"},{"type":"function","name":"setTicketURI","inputs":[{"name":"ticketId","type":"uint256","internalType":"uint256"},{"name":"uri","type":"string","internalType":"string"}],"outputs":[],"stateMutability":"nonpayable"},{"type":"function","name":"ticketTransfers","inputs":[{"name":"","type":"uint256","internalType":"uint256"}],"outputs":[{"name":"","type":"uint16","internalType":"uint16"}],"stateMutability":"view"},{"type":"function","name":"tickets","inputs":[],"outputs":[{"name":"","type":"address","internalType":"contract TicketNFT"}],"stateMutability":"view"},{"type":"function","name":"transferOwnership","inputs":[{"name":"newOwner","type":"address","internalType":"address"}],"outputs":[],"stateMutability":"nonpayable"},{"type":"function","name":"usedProof","inputs":[{"name":"","type":"bytes32","internalType":"bytes32"}],"outputs":[{"name":"","type":"bool","internalType":"bool"}],"stateMutability":"view"},{"type":"event","name":"Listed","inputs":[{"name":"ticketId","type":"uint256","indexed":true,"internalType":"uint256"},{"name":"price","type":"uint256","indexed":false,"internalType":"uint256"},{"name":"seller","type":"address","indexed":false,"internalType":"address"}],"anonymous":false},{"type":"event","name":"OwnershipTransferred","inputs":[{"name":"previousOwner","type":"address","indexed":true,"internalType":"address"},{"name":"newOwner","type":"address","indexed":true,"internalType":"address"}],"anonymous":false},{"type":"event","name":"POAPMinted","inputs":[{"name":"poapId","type":"uint256","indexed":true,"internalType":"uint256"},{"name":"eventId","type":"uint256","indexed":true,"internalType":"uint256"},{"name":"attendee","type":"address","indexed":true,"internalType":"address"}],"anonymous":false},{"type":"event","name":"ResaleRuleUpdated","inputs":[{"name":"eventId","type":"uint256","indexed":true,"internalType":"uint256"},{"name":"maxPrice","type":"uint256","indexed":false,"internalType":"uint256"},{"name":"maxTransfers","type":"uint16","indexed":false,"internalType":"uint16"}],"anonymous":false},{"type":"event","name":"Sale","inputs":[{"name":"ticketId","type":"uint256","indexed":true,"internalType":"uint256"},{"name":"buyer","type":"address","indexed":true,"internalType":"address"},{"name":"price","type":"uint256","indexed":false,"internalType":"uint256"}],"anonymous":false},{"type":"event","name":"TicketMinted","inputs":[{"name":"ticketId","type":"uint256","indexed":true,"internalType":"uint256"},{"name":"eventId","type":"uint256","indexed":true,"internalType":"uint256"},{"name":"owner","type":"address","indexed":true,"internalType":"address"}],"anonymous":false},{"type":"event","name":"TicketScanned","inputs":[{"name":"ticketId","type":"uint256","indexed":true,"internalType":"uint256"},{"name":"eventId","type":"uint256","indexed":true,"internalType":"uint256"},{"name":"scanner","type":"address","indexed":true,"internalType":"address"}],"anonymous":false},{"type":"error","name":"ECDSAInvalidSignature","inputs":[]},{"type":"error","name":"ECDSAInvalidSignatureLength","inputs":[{"name":"length","type":"uint256","internalType":"uint256"}]},{"type":"error","name":"ECDSAInvalidSignatureS","inputs":[{"name":"s","type":"bytes32","internalType":"bytes32"}]},{"type":"error","name":"OwnableInvalidOwner","inputs":[{"name":"owner","type":"address","internalType":"address"}]},{"type":"error","name":"OwnableUnauthorizedAccount","inputs":[{"name":"account","type":"address","internalType":"address"}]},{"type":"error","name":"ReentrancyGuardReentrantCall","inputs":[]}],"bytecode":{"object":"0x60806040526003805460ff60a01b1916600160a01b17905534801562000023575f80fd5b5060405162005460380380620054608339810160408190526200004691620002e4565b33806200006d57604051631e4fbdf760e01b81525f60048201526024015b60405180910390fd5b620000788162000279565b5060017f9b779b17422d0df92223018b32b4d1fa46e071723d6817e2486d003becc55f00556001600160a01b038116620000f55760405162461bcd60e51b815260206004820152601660248201527f4d616e746c65207369676e657220726571756972656400000000000000000000604482015260640162000064565b600180546001600160a01b0319166001600160a01b038316179055600354604051600160a01b90910460ff16906200012d90620002c8565b9015158152602001604051809103905ff0801580156200014f573d5f803e3d5ffd5b50600380546001600160a01b0319166001600160a01b039290921691909117905560405130906200018090620002d6565b6001600160a01b039091168152602001604051809103905ff080158015620001aa573d5f803e3d5ffd5b50600280546001600160a01b0319166001600160a01b0392831617905560035460405163f2fde38b60e01b815230600482015291169063f2fde38b906024015f604051808303815f87803b15801562000201575f80fd5b505af115801562000214573d5f803e3d5ffd5b505060025460405163f2fde38b60e01b81523060048201526001600160a01b03909116925063f2fde38b91506024015f604051808303815f87803b1580156200025b575f80fd5b505af11580156200026e573d5f803e3d5ffd5b505050505062000313565b5f80546001600160a01b038381166001600160a01b0319831681178455604051919092169283917f8be0079c531659141344cd1fd0a4f28419497f9722a3daafe3b4186f6b6457e09190a35050565b6117e280620021e883390190565b611a9680620039ca83390190565b5f60208284031215620002f5575f80fd5b81516001600160a01b03811681146200030c575f80fd5b9392505050565b611ec780620003215f395ff3fe60806040526004361061014a575f3560e01c8063715018a6116100b3578063c8cedf1a1161006d578063c8cedf1a14610420578063d1be00ed1461043f578063d7cd8e151461045e578063de74e57b1461047e578063e5e816a0146104ec578063f2fde38b1461052e575f80fd5b8063715018a61461035b5780637b6bd7d41461036f5780638bd45c651461038e5780638da5cb5b146103ba578063b120c16a146103d6578063b9f79451146103f5575f80fd5b806336eac57b1161010457806336eac57b1461028057806350810e341461029f57806367dd74ca146102cc5780636bb03a87146102df5780636c65d6d5146102fe5780636e20ffbd1461031d575f80fd5b806304d6ded4146101555780631b7b5b4b146101cb57806321858521146102025780632b6abcfc14610221578063305a67a814610242578063305a905a14610261575f80fd5b3661015157005b5f80fd5b348015610160575f80fd5b5061019d61016f3660046118bb565b60046020525f90815260409020805460018201546002909201546001600160a01b03909116919061ffff1683565b604080516001600160a01b039094168452602084019290925261ffff16908201526060015b60405180910390f35b3480156101d6575f80fd5b506001546101ea906001600160a01b031681565b6040516001600160a01b0390911681526020016101c2565b34801561020d575f80fd5b506002546101ea906001600160a01b031681565b34801561022c575f80fd5b5061024061023b3660046118bb565b61054d565b005b34801561024d575f80fd5b5061024061025c3660046118bb565b6105b1565b34801561026c575f80fd5b5061024061027b3660046118d2565b6106a5565b34801561028b575f80fd5b506003546101ea906001600160a01b031681565b3480156102aa575f80fd5b506102be6102b936600461194b565b6108d4565b6040519081526020016101c2565b6102406102da3660046118bb565b610b1d565b3480156102ea575f80fd5b506102406102f9366004611a28565b610f78565b348015610309575f80fd5b506102be610318366004611ac1565b610fe3565b348015610328575f80fd5b5061034b6103373660046118bb565b60076020525f908152604090205460ff1681565b60405190151581526020016101c2565b348015610366575f80fd5b5061024061132a565b34801561037a575f80fd5b50610240610389366004611b2f565b61133d565b348015610399575f80fd5b506103ad6103a83660046118bb565b6113f0565b6040516101c29190611b7c565b3480156103c5575f80fd5b505f546001600160a01b03166101ea565b3480156103e1575f80fd5b506102406103f0366004611bc8565b611464565b348015610400575f80fd5b506102be61040f366004611bf2565b60086020525f908152604090205481565b34801561042b575f80fd5b5061024061043a366004611a28565b611487565b34801561044a575f80fd5b50610240610459366004611bf2565b6114c1565b348015610469575f80fd5b5060035461034b90600160a01b900460ff1681565b348015610489575f80fd5b506104c56104983660046118bb565b60066020525f90815260409020805460018201546002909201546001600160a01b03909116919060ff1683565b604080516001600160a01b03909416845260208401929092521515908201526060016101c2565b3480156104f7575f80fd5b5061051b6105063660046118bb565b60056020525f908152604090205461ffff1681565b60405161ffff90911681526020016101c2565b348015610539575f80fd5b50610240610548366004611bf2565b611532565b61055561156c565b600254604051630852cd8d60e31b8152600481018390526001600160a01b03909116906342966c68906024015f604051808303815f87803b158015610598575f80fd5b505af11580156105aa573d5f803e3d5ffd5b5050505050565b5f81815260066020908152604091829020825160608101845281546001600160a01b031681526001820154928101929092526002015460ff1615159181018290529061062f5760405162461bcd60e51b8152602060048201526008602482015267696e61637469766560c01b60448201526064015b60405180910390fd5b80516001600160a01b031633148061065057505f546001600160a01b031633145b61068a5760405162461bcd60e51b815260206004820152600b60248201526a1b9bdd08185b1b1bddd95960aa1b6044820152606401610626565b505f908152600660205260409020600201805460ff19169055565b6106ad611598565b6002546040516331a9108f60e11b81526004810184905233916001600160a01b031690636352211e90602401602060405180830381865afa1580156106f4573d5f803e3d5ffd5b505050506040513d601f19601f820116820180604052508101906107189190611c14565b6001600160a01b03161461075a5760405162461bcd60e51b81526020600482015260096024820152683737ba1037bbb732b960b91b6044820152606401610626565b60025460405163c20b324d60e01b8152600481018490525f916001600160a01b03169063c20b324d90602401602060405180830381865afa1580156107a1573d5f803e3d5ffd5b505050506040513d601f19601f820116820180604052508101906107c59190611c2f565b5f818152600460205260409020549091506001600160a01b03166108225760405162461bcd60e51b8152602060048201526014602482015273195d995b9d081b9bdd0818dbdb999a59dd5c995960621b6044820152606401610626565b6040805160608101825233808252602080830186815260018486018181525f8a815260068552879020955186546001600160a01b0319166001600160a01b03909116178655915190850155516002909301805460ff19169315159390931790925582518581529182015284917fb4e5606a376800f822ae7ce93010dddb4ebd38ca6db1bdbc2d0a1de90c9079e4910160405180910390a2506108d060015f80516020611e7283398151915255565b5050565b5f6108dd611598565b5f61093e604051806040016040528060048152602001631352539560e21b8152505f898d8a8a8a8a8080601f0160208091040260200160405190810160405280939291908181526020018383808284375f920191909152506115b392505050565b90508061098d5760405162461bcd60e51b815260206004820152601960248201527f696e76616c6964204d616e746c65206d696e742070726f6f66000000000000006044820152606401610626565b604051631352539560e21b60208201526001600160601b031960608c901b1660248201526038810188905260588101879052607881018690525f9060980160408051601f1981840301815291815281516020928301205f818152600790935291205490915060ff1615610a2f5760405162461bcd60e51b815260206004820152600a6024820152691c1c9bdbd9881d5cd95960b21b6044820152606401610626565b5f81815260076020526040808220805460ff19166001179055600254905163cf7a314160e01b81526001600160a01b039091169063cf7a314190610a7d908f908f908f908f90600401611c6e565b6020604051808303815f875af1158015610a99573d5f803e3d5ffd5b505050506040513d601f19601f82011682018060405250810190610abd9190611c2f565b90508b6001600160a01b031689827f085ec0eff4bf526b0dd054adffcd8bd8da42126a1133ce302042973f32029fb060405160405180910390a492505050610b1160015f80516020611e7283398151915255565b98975050505050505050565b610b25611598565b5f81815260066020908152604091829020825160608101845281546001600160a01b031681526001820154928101929092526002015460ff16151591810182905290610ba05760405162461bcd60e51b815260206004820152600a6024820152691b9bdd081b1a5cdd195960b21b6044820152606401610626565b80602001513414610be15760405162461bcd60e51b815260206004820152600b60248201526a77726f6e6720707269636560a81b6044820152606401610626565b60025460405163c20b324d60e01b8152600481018490525f916001600160a01b03169063c20b324d90602401602060405180830381865afa158015610c28573d5f803e3d5ffd5b505050506040513d601f19601f82011682018060405250810190610c4c9190611c2f565b5f81815260046020908152604091829020825160608101845281546001600160a01b03168152600182015492810183905260029091015461ffff16928101929092529192509015801590610caf5750805183516001600160a01b03908116911614155b15610cfe57806020015183602001511115610cfe5760405162461bcd60e51b815260206004820152600f60248201526e070726963652061626f76652063617608c1b6044820152606401610626565b82516040515f916001600160a01b03169034908381818185875af1925050503d805f8114610d47576040519150601f19603f3d011682016040523d82523d5f602084013e610d4c565b606091505b5050905080610d8f5760405162461bcd60e51b815260206004820152600f60248201526e1d1c985b9cd9995c8819985a5b1959608a1b6044820152606401610626565b60025484516040516323b872dd60e01b81526001600160a01b039182166004820152336024820152604481018890529116906323b872dd906064015f604051808303815f87803b158015610de1575f80fd5b505af1158015610df3573d5f803e3d5ffd5b50506002546040516367f444a560e01b8152600481018990523360248201526001600160a01b0390911692506367f444a591506044015f604051808303815f87803b158015610e40575f80fd5b505af1158015610e52573d5f803e3d5ffd5b5050505f868152600560205260408120805460019350909190610e7a90849061ffff16611cb7565b92506101000a81548161ffff021916908361ffff1602179055505f826040015161ffff161115610f07576040808301515f8781526005602052919091205461ffff91821691161115610f075760405162461bcd60e51b81526020600482015260166024820152751d1c985b9cd9995c881b1a5b5a5d081c995858da195960521b6044820152606401610626565b5f85815260066020908152604091829020600201805460ff19169055858101519151918252339187917fc0e076a004e59b819c1099b4799386d7feaa928662e5f3f95af4db1a1502520d910160405180910390a350505050610f7560015f80516020611e7283398151915255565b50565b610f8061156c565b600254604051630588253160e21b81526001600160a01b039091169063162094c490610fb29085908590600401611cfb565b5f604051808303815f87803b158015610fc9575f80fd5b505af1158015610fdb573d5f803e3d5ffd5b505050505050565b5f610fec611598565b5f6110506040518060400160405280600781526020016621a422a1a5a4a760c91b8152508b8b338a8a8a8a8080601f0160208091040260200160405190810160405280939291908181526020018383808284375f920191909152506115b392505050565b90508061109f5760405162461bcd60e51b815260206004820152601c60248201527f696e76616c6964204d616e746c6520636865636b696e2070726f6f66000000006044820152606401610626565b6040516621a422a1a5a4a760c91b6020820152602781018b90526001600160601b03193360601b166047820152605b81018a9052607b8101879052609b81018690525f9060bb0160408051601f1981840301815291815281516020928301205f818152600790935291205490915060ff161561114a5760405162461bcd60e51b815260206004820152600a6024820152691c1c9bdbd9881d5cd95960b21b6044820152606401610626565b5f8181526007602052604090819020805460ff1916600117905560025490516331a9108f60e11b8152600481018d905233916001600160a01b031690636352211e90602401602060405180830381865afa1580156111aa573d5f803e3d5ffd5b505050506040513d601f19601f820116820180604052508101906111ce9190611c14565b6001600160a01b0316146112175760405162461bcd60e51b815260206004820152601060248201526f3737ba103a34b1b5b2ba1037bbb732b960811b6044820152606401610626565b60405133908b908d907fde8c2f6a2d30936c8e38a2d3e066971de02dbdbd19d56706073ddc7b40f450ff905f90a4600354604051631183369b60e31b81525f916001600160a01b031690638c19b4d8906112799033908e908e90600401611d34565b6020604051808303815f875af1158015611295573d5f803e3d5ffd5b505050506040513d601f19601f820116820180604052508101906112b99190611c2f565b335f90815260086020526040812080549293506001929091906112dd908490611d61565b909155505060405133908c9083907f44981ccb831e870c0670435e5363e8d2a145fe091100b74bd7521b9bc5652012905f90a492505050610b1160015f80516020611e7283398151915255565b61133261156c565b61133b5f61164c565b565b61134561156c565b604080516060810182526001600160a01b038581168252602080830186815261ffff8681168587018181525f8c815260048652889020965187546001600160a01b03191696169590951786559151600186015592516002909401805461ffff1916949093169390931790915582518581529081019190915285917fae740032a32e42c6cf021b8fb37c415a30c115eadd082c5a1e1e0ec5bef715a6910160405180910390a250505050565b6002546040516360f1233d60e01b8152600481018390526060916001600160a01b0316906360f1233d906024015f60405180830381865afa158015611437573d5f803e3d5ffd5b505050506040513d5f823e601f3d908101601f1916820160405261145e9190810190611d74565b92915050565b61146c61156c565b6001600160a01b039091165f90815260086020526040902055565b61148f61156c565b600354604051630588253160e21b81526001600160a01b039091169063162094c490610fb29085908590600401611cfb565b6114c961156c565b6001600160a01b0381166115105760405162461bcd60e51b815260206004820152600e60248201526d34b73b30b634b21039b4b3b732b960911b6044820152606401610626565b600180546001600160a01b0319166001600160a01b0392909216919091179055565b61153a61156c565b6001600160a01b03811661156357604051631e4fbdf760e01b81525f6004820152602401610626565b610f758161164c565b5f546001600160a01b0316331461133b5760405163118cdaa760e01b8152336004820152602401610626565b6115a061169b565b60025f80516020611e7283398151915255565b5f808888888888886040516020016115d096959493929190611e15565b6040516020818303038152906040528051906020012090505f61161f827f19457468657265756d205369676e6564204d6573736167653a0a3332000000005f908152601c91909152603c902090565b90505f61162c82866116ca565b6001546001600160a01b039081169116149b9a5050505050505050505050565b5f80546001600160a01b038381166001600160a01b0319831681178455604051919092169283917f8be0079c531659141344cd1fd0a4f28419497f9722a3daafe3b4186f6b6457e09190a35050565b5f80516020611e728339815191525460020361133b57604051633ee5aeb560e01b815260040160405180910390fd5b5f805f806116d886866116f2565b9250925092506116e8828261173b565b5090949350505050565b5f805f8351604103611729576020840151604085015160608601515f1a61171b888285856117f3565b955095509550505050611734565b505081515f91506002905b9250925092565b5f82600381111561174e5761174e611e5d565b03611757575050565b600182600381111561176b5761176b611e5d565b036117895760405163f645eedf60e01b815260040160405180910390fd5b600282600381111561179d5761179d611e5d565b036117be5760405163fce698f760e01b815260048101829052602401610626565b60038260038111156117d2576117d2611e5d565b036108d0576040516335e2f38360e21b815260048101829052602401610626565b5f80807f7fffffffffffffffffffffffffffffff5d576e7357a4501ddfe92f46681b20a084111561182c57505f915060039050826118b1565b604080515f808252602082018084528a905260ff891692820192909252606081018790526080810186905260019060a0016020604051602081039080840390855afa15801561187d573d5f803e3d5ffd5b5050604051601f1901519150506001600160a01b0381166118a857505f9250600191508290506118b1565b92505f91508190505b9450945094915050565b5f602082840312156118cb575f80fd5b5035919050565b5f80604083850312156118e3575f80fd5b50508035926020909101359150565b6001600160a01b0381168114610f75575f80fd5b5f8083601f840112611916575f80fd5b50813567ffffffffffffffff81111561192d575f80fd5b602083019150836020828501011115611944575f80fd5b9250929050565b5f805f805f805f8060c0898b031215611962575f80fd5b883561196d816118f2565b9750602089013567ffffffffffffffff80821115611989575f80fd5b6119958c838d01611906565b909950975060408b0135965060608b0135955060808b0135945060a08b01359150808211156119c2575f80fd5b506119cf8b828c01611906565b999c989b5096995094979396929594505050565b634e487b7160e01b5f52604160045260245ffd5b604051601f8201601f1916810167ffffffffffffffff81118282101715611a2057611a206119e3565b604052919050565b5f8060408385031215611a39575f80fd5b8235915060208084013567ffffffffffffffff80821115611a58575f80fd5b818601915086601f830112611a6b575f80fd5b813581811115611a7d57611a7d6119e3565b611a8f601f8201601f191685016119f7565b91508082528784828501011115611aa4575f80fd5b80848401858401375f848284010152508093505050509250929050565b5f805f805f805f8060c0898b031215611ad8575f80fd5b8835975060208901359650604089013567ffffffffffffffff80821115611afd575f80fd5b611b098c838d01611906565b909850965060608b0135955060808b0135945060a08b01359150808211156119c2575f80fd5b5f805f8060808587031215611b42575f80fd5b843593506020850135611b54816118f2565b925060408501359150606085013561ffff81168114611b71575f80fd5b939692955090935050565b602080825282518282018190525f9190848201906040850190845b81811015611bbc5783516001600160a01b031683529284019291840191600101611b97565b50909695505050505050565b5f8060408385031215611bd9575f80fd5b8235611be4816118f2565b946020939093013593505050565b5f60208284031215611c02575f80fd5b8135611c0d816118f2565b9392505050565b5f60208284031215611c24575f80fd5b8151611c0d816118f2565b5f60208284031215611c3f575f80fd5b5051919050565b81835281816020850137505f828201602090810191909152601f909101601f19169091010190565b6001600160a01b03851681526060602082018190525f90611c929083018587611c46565b905082604083015295945050505050565b634e487b7160e01b5f52601160045260245ffd5b61ffff818116838216019080821115611cd257611cd2611ca3565b5092915050565b5f5b83811015611cf3578181015183820152602001611cdb565b50505f910152565b828152604060208201525f8251806040840152611d1f816060850160208701611cd9565b601f01601f1916919091016060019392505050565b6001600160a01b03841681526040602082018190525f90611d589083018486611c46565b95945050505050565b8082018082111561145e5761145e611ca3565b5f6020808385031215611d85575f80fd5b825167ffffffffffffffff80821115611d9c575f80fd5b818501915085601f830112611daf575f80fd5b815181811115611dc157611dc16119e3565b8060051b9150611dd28483016119f7565b8181529183018401918481019088841115611deb575f80fd5b938501935b83851015610b115784519250611e05836118f2565b8282529385019390850190611df0565b5f8751611e26818460208c01611cd9565b9190910195865250602085019390935260609190911b6001600160601b031916604084015260548301526074820152609401919050565b634e487b7160e01b5f52602160045260245ffdfe9b779b17422d0df92223018b32b4d1fa46e071723d6817e2486d003becc55f00a2646970667358221220acee0193f1dbba38bd963f8559e96a5a5a6d14b60e42aed8bfb595518d1eac7264736f6c634300081800336080604052600160085534801562000015575f80fd5b50604051620017e2380380620017e283398101604081905262000038916200013e565b336040518060400160405280600a8152602001690417661726120504f41560b41b81525060405180604001604052806005815260200164041504f41560dc1b815250815f90816200008a919062000204565b50600162000099828262000204565b5050506001600160a01b038116620000ca57604051631e4fbdf760e01b81525f600482015260240160405180910390fd5b620000d581620000ed565b506009805460ff1916911515919091179055620002d0565b600780546001600160a01b038381166001600160a01b0319831681179093556040519116919082907f8be0079c531659141344cd1fd0a4f28419497f9722a3daafe3b4186f6b6457e0905f90a35050565b5f602082840312156200014f575f80fd5b815180151581146200015f575f80fd5b9392505050565b634e487b7160e01b5f52604160045260245ffd5b600181811c908216806200018f57607f821691505b602082108103620001ae57634e487b7160e01b5f52602260045260245ffd5b50919050565b601f821115620001ff57805f5260205f20601f840160051c81016020851015620001db5750805b601f840160051c820191505b81811015620001fc575f8155600101620001e7565b50505b505050565b81516001600160401b0381111562000220576200022062000166565b62000238816200023184546200017a565b84620001b4565b602080601f8311600181146200026e575f8415620002565750858301515b5f19600386901b1c1916600185901b178555620002c8565b5f85815260208120601f198616915b828110156200029e578886015182559484019460019091019084016200027d565b5085821015620002bc57878501515f19600388901b60f8161c191681555b505060018460011b0185555b505050505050565b61150480620002de5f395ff3fe608060405234801561000f575f80fd5b5060043610610127575f3560e01c806370a08231116100a9578063a22cb4651161006e578063a22cb4651461025f578063b88d4fde14610272578063c87b56dd14610285578063e985e9c514610298578063f2fde38b146102ab575f80fd5b806370a0823114610218578063715018a61461022b5780638c19b4d8146102335780638da5cb5b1461024657806395d89b4114610257575f80fd5b8063162094c4116100ef578063162094c4146101b557806323b872dd146101c857806342842e0e146101db57806361b8ce8c146101ee5780636352211e14610205575f80fd5b806301ffc9a71461012b57806306fdde0314610153578063081812fc14610168578063095ea7b3146101935780630fad0f51146101a8575b5f80fd5b61013e610139366004610fc8565b6102be565b60405190151581526020015b60405180910390f35b61015b6102ce565b60405161014a9190611030565b61017b610176366004611042565b61035d565b6040516001600160a01b03909116815260200161014a565b6101a66101a1366004611074565b610384565b005b60095461013e9060ff1681565b6101a66101c3366004611141565b610393565b6101a66101d6366004611185565b6103a5565b6101a66101e9366004611185565b610433565b6101f760085481565b60405190815260200161014a565b61017b610213366004611042565b610452565b6101f76102263660046111be565b61045c565b6101a66104a1565b6101f76102413660046111d7565b6104b4565b6007546001600160a01b031661017b565b61015b6104ee565b6101a661026d36600461120c565b6104fd565b6101a6610280366004611245565b610508565b61015b610293366004611042565b610520565b61013e6102a63660046112bc565b61052b565b6101a66102b93660046111be565b610558565b5f6102c882610595565b92915050565b60605f80546102dc906112ed565b80601f0160208091040260200160405190810160405280929190818152602001828054610308906112ed565b80156103535780601f1061032a57610100808354040283529160200191610353565b820191905f5260205f20905b81548152906001019060200180831161033657829003601f168201915b5050505050905090565b5f610367826105b9565b505f828152600460205260409020546001600160a01b03166102c8565b61038f8282336105f1565b5050565b61039b6105fe565b61038f828261062b565b6001600160a01b0382166103d357604051633250574960e11b81525f60048201526024015b60405180910390fd5b5f6103df83833361067a565b9050836001600160a01b0316816001600160a01b03161461042d576040516364283d7b60e01b81526001600160a01b03808616600483015260248201849052821660448201526064016103ca565b50505050565b61044d83838360405180602001604052805f815250610508565b505050565b5f6102c8826105b9565b5f6001600160a01b038216610486576040516322718ad960e21b81525f60048201526024016103ca565b506001600160a01b03165f9081526003602052604090205490565b6104a96105fe565b6104b25f61071f565b565b5f6104bd6105fe565b600880545f91826104cd83611325565b9190505590506104dd8482610770565b6104e7818461062b565b9392505050565b6060600180546102dc906112ed565b61038f338383610789565b6105138484846103a5565b61042d3385858585610827565b60606102c88261094f565b6001600160a01b039182165f90815260056020908152604080832093909416825291909152205460ff1690565b6105606105fe565b6001600160a01b03811661058957604051631e4fbdf760e01b81525f60048201526024016103ca565b6105928161071f565b50565b5f6001600160e01b03198216632483248360e11b14806102c857506102c882610a5a565b5f818152600260205260408120546001600160a01b0316806102c857604051637e27328960e01b8152600481018490526024016103ca565b61044d8383836001610aa9565b6007546001600160a01b031633146104b25760405163118cdaa760e01b81523360048201526024016103ca565b5f828152600660205260409020610642828261138d565b506040518281527ff8e1a15aba9398e019f0b49df1a4fde98ee17ae345cb5f6b5e2c27f5033e8ce79060200160405180910390a15050565b5f828152600260205260408120546009546001600160a01b039091169060ff1615806106ad57506001600160a01b038116155b806106bf57506001600160a01b038516155b61070b5760405162461bcd60e51b815260206004820152601b60248201527f536f756c626f756e643a206e6f6e2d7472616e7366657261626c65000000000060448201526064016103ca565b610716858585610bad565b95945050505050565b600780546001600160a01b038381166001600160a01b0319831681179093556040519116919082907f8be0079c531659141344cd1fd0a4f28419497f9722a3daafe3b4186f6b6457e0905f90a35050565b61038f828260405180602001604052805f815250610c9f565b6001600160a01b0382166107bb57604051630b61174360e31b81526001600160a01b03831660048201526024016103ca565b6001600160a01b038381165f81815260056020908152604080832094871680845294825291829020805460ff191686151590811790915591519182527f17307eab39ab6107e8899845ad3d59bd9653f200f220920489ca2b5937696c31910160405180910390a3505050565b6001600160a01b0383163b1561094857604051630a85bd0160e11b81526001600160a01b0384169063150b7a0290610869908890889087908790600401611449565b6020604051808303815f875af19250505080156108a3575060408051601f3d908101601f191682019092526108a091810190611485565b60015b61090a573d8080156108d0576040519150601f19603f3d011682016040523d82523d5f602084013e6108d5565b606091505b5080515f0361090257604051633250574960e11b81526001600160a01b03851660048201526024016103ca565b805160208201fd5b6001600160e01b03198116630a85bd0160e11b1461094657604051633250574960e11b81526001600160a01b03851660048201526024016103ca565b505b5050505050565b606061095a826105b9565b505f8281526006602052604081208054610973906112ed565b80601f016020809104026020016040519081016040528092919081815260200182805461099f906112ed565b80156109ea5780601f106109c1576101008083540402835291602001916109ea565b820191905f5260205f20905b8154815290600101906020018083116109cd57829003601f168201915b505050505090505f610a0660408051602081019091525f815290565b905080515f03610a17575092915050565b815115610a49578082604051602001610a319291906114a0565b60405160208183030381529060405292505050919050565b610a5284610cb6565b949350505050565b5f6001600160e01b031982166380ac58cd60e01b1480610a8a57506001600160e01b03198216635b5e139f60e01b145b806102c857506301ffc9a760e01b6001600160e01b03198316146102c8565b8080610abd57506001600160a01b03821615155b15610b7e575f610acc846105b9565b90506001600160a01b03831615801590610af85750826001600160a01b0316816001600160a01b031614155b8015610b0b5750610b09818461052b565b155b15610b345760405163a9fbf51f60e01b81526001600160a01b03841660048201526024016103ca565b8115610b7c5783856001600160a01b0316826001600160a01b03167f8c5be1e5ebec7d5bd14f71427d1e84f3dd0314c0f7b2291e5b200ac8c7c3b92560405160405180910390a45b505b50505f90815260046020526040902080546001600160a01b0319166001600160a01b0392909216919091179055565b5f828152600260205260408120546001600160a01b0390811690831615610bd957610bd9818486610d26565b6001600160a01b03811615610c1357610bf45f855f80610aa9565b6001600160a01b0381165f90815260036020526040902080545f190190555b6001600160a01b03851615610c41576001600160a01b0385165f908152600360205260409020805460010190555b5f8481526002602052604080822080546001600160a01b0319166001600160a01b0389811691821790925591518793918516917fddf252ad1be2c89b69c2b068fc378daa952ba7f163c4a11628f55a4df523b3ef91a4949350505050565b610ca98383610d8a565b61044d335f858585610827565b6060610cc1826105b9565b505f610cd760408051602081019091525f815290565b90505f815111610cf55760405180602001604052805f8152506104e7565b80610cff84610deb565b604051602001610d109291906114a0565b6040516020818303038152906040529392505050565b610d31838383610e7b565b61044d576001600160a01b038316610d5f57604051637e27328960e01b8152600481018290526024016103ca565b60405163177e802f60e01b81526001600160a01b0383166004820152602481018290526044016103ca565b6001600160a01b038216610db357604051633250574960e11b81525f60048201526024016103ca565b5f610dbf83835f61067a565b90506001600160a01b0381161561044d576040516339e3563760e11b81525f60048201526024016103ca565b60605f610df783610edc565b60010190505f8167ffffffffffffffff811115610e1657610e1661109c565b6040519080825280601f01601f191660200182016040528015610e40576020820181803683370190505b5090508181016020015b5f19016f181899199a1a9b1b9c1cb0b131b232b360811b600a86061a8153600a8504945084610e4a57509392505050565b5f6001600160a01b03831615801590610a525750826001600160a01b0316846001600160a01b03161480610eb45750610eb4848461052b565b80610a525750505f908152600460205260409020546001600160a01b03908116911614919050565b5f8072184f03e93ff9f4daa797ed6e38ed64bf6a1f0160401b8310610f1a5772184f03e93ff9f4daa797ed6e38ed64bf6a1f0160401b830492506040015b6d04ee2d6d415b85acef81000000008310610f46576d04ee2d6d415b85acef8100000000830492506020015b662386f26fc100008310610f6457662386f26fc10000830492506010015b6305f5e1008310610f7c576305f5e100830492506008015b6127108310610f9057612710830492506004015b60648310610fa2576064830492506002015b600a83106102c85760010192915050565b6001600160e01b031981168114610592575f80fd5b5f60208284031215610fd8575f80fd5b81356104e781610fb3565b5f5b83811015610ffd578181015183820152602001610fe5565b50505f910152565b5f815180845261101c816020860160208601610fe3565b601f01601f19169290920160200192915050565b602081525f6104e76020830184611005565b5f60208284031215611052575f80fd5b5035919050565b80356001600160a01b038116811461106f575f80fd5b919050565b5f8060408385031215611085575f80fd5b61108e83611059565b946020939093013593505050565b634e487b7160e01b5f52604160045260245ffd5b5f67ffffffffffffffff808411156110ca576110ca61109c565b604051601f8501601f19908116603f011681019082821181831017156110f2576110f261109c565b8160405280935085815286868601111561110a575f80fd5b858560208301375f602087830101525050509392505050565b5f82601f830112611132575f80fd5b6104e7838335602085016110b0565b5f8060408385031215611152575f80fd5b82359150602083013567ffffffffffffffff81111561116f575f80fd5b61117b85828601611123565b9150509250929050565b5f805f60608486031215611197575f80fd5b6111a084611059565b92506111ae60208501611059565b9150604084013590509250925092565b5f602082840312156111ce575f80fd5b6104e782611059565b5f80604083850312156111e8575f80fd5b6111f183611059565b9150602083013567ffffffffffffffff81111561116f575f80fd5b5f806040838503121561121d575f80fd5b61122683611059565b91506020830135801515811461123a575f80fd5b809150509250929050565b5f805f8060808587031215611258575f80fd5b61126185611059565b935061126f60208601611059565b925060408501359150606085013567ffffffffffffffff811115611291575f80fd5b8501601f810187136112a1575f80fd5b6112b0878235602084016110b0565b91505092959194509250565b5f80604083850312156112cd575f80fd5b6112d683611059565b91506112e460208401611059565b90509250929050565b600181811c9082168061130157607f821691505b60208210810361131f57634e487b7160e01b5f52602260045260245ffd5b50919050565b5f6001820161134257634e487b7160e01b5f52601160045260245ffd5b5060010190565b601f82111561044d57805f5260205f20601f840160051c8101602085101561136e5750805b601f840160051c820191505b81811015610948575f815560010161137a565b815167ffffffffffffffff8111156113a7576113a761109c565b6113bb816113b584546112ed565b84611349565b602080601f8311600181146113ee575f84156113d75750858301515b5f19600386901b1c1916600185901b178555610946565b5f85815260208120601f198616915b8281101561141c578886015182559484019460019091019084016113fd565b508582101561143957878501515f19600388901b60f8161c191681555b5050505050600190811b01905550565b6001600160a01b03858116825284166020820152604081018390526080606082018190525f9061147b90830184611005565b9695505050505050565b5f60208284031215611495575f80fd5b81516104e781610fb3565b5f83516114b1818460208801610fe3565b8351908301906114c5818360208801610fe3565b0194935050505056fea26469706673582212202ebb537d32349a31e49c1feff5f873ca24d5106bad396f857e4a8837516c61ce64736f6c63430008180033608060405234801562000010575f80fd5b5060405162001a9638038062001a96833981016040819052620000339162000148565b806040518060400160405280600c81526020016b105d985c9848151a58dad95d60a21b8152506040518060400160405280600381526020016210559560ea1b815250815f908162000085919062000215565b50600162000094828262000215565b5050506001600160a01b038116620000c557604051631e4fbdf760e01b81525f600482015260240160405180910390fd5b620000d081620000f7565b50600980546001600160a01b0319166001600160a01b0392909216919091179055620002e1565b600780546001600160a01b038381166001600160a01b0319831681179093556040519116919082907f8be0079c531659141344cd1fd0a4f28419497f9722a3daafe3b4186f6b6457e0905f90a35050565b5f6020828403121562000159575f80fd5b81516001600160a01b038116811462000170575f80fd5b9392505050565b634e487b7160e01b5f52604160045260245ffd5b600181811c90821680620001a057607f821691505b602082108103620001bf57634e487b7160e01b5f52602260045260245ffd5b50919050565b601f8211156200021057805f5260205f20601f840160051c81016020851015620001ec5750805b601f840160051c820191505b818110156200020d575f8155600101620001f8565b50505b505050565b81516001600160401b0381111562000231576200023162000177565b62000249816200024284546200018b565b84620001c5565b602080601f8311600181146200027f575f8415620002675750858301515b5f19600386901b1c1916600185901b178555620002d9565b5f85815260208120601f198616915b82811015620002af578886015182559484019460019091019084016200028e565b5085821015620002cd57878501515f19600388901b60f8161c191681555b505060018460011b0185555b505050505050565b6117a780620002ef5f395ff3fe608060405234801561000f575f80fd5b5060043610610153575f3560e01c806370a08231116100bf578063c20b324d11610079578063c20b324d146102e1578063c87b56dd14610300578063cf7a314114610313578063e985e9c514610326578063f2f4eb2614610339578063f2fde38b1461034c575f80fd5b806370a0823114610279578063715018a61461029a5780638da5cb5b146102a257806395d89b41146102b3578063a22cb465146102bb578063b88d4fde146102ce575f80fd5b806323b872dd1161011057806323b872dd146101fa57806342842e0e1461020d57806342966c681461022057806360f1233d146102335780636352211e1461025357806367f444a514610266575f80fd5b806301ffc9a71461015757806306fdde031461017f578063081812fc14610194578063095ea7b3146101bf5780631092f9ee146101d4578063162094c4146101e7575b5f80fd5b61016a61016536600461119d565b61035f565b60405190151581526020015b60405180910390f35b61018761036f565b6040516101769190611205565b6101a76101a2366004611217565b6103fe565b6040516001600160a01b039091168152602001610176565b6101d26101cd366004611249565b610425565b005b6101a76101e2366004611271565b610434565b6101d26101f5366004611336565b610468565b6101d261020836600461137a565b61047a565b6101d261021b36600461137a565b610508565b6101d261022e366004611217565b610527565b610246610241366004611217565b61055d565b60405161017691906113b3565b6101a7610261366004611217565b6105c6565b6101d26102743660046113ff565b6105d0565b61028c610287366004611429565b610638565b604051908152602001610176565b6101d261067d565b6007546001600160a01b03166101a7565b610187610690565b6101d26102c9366004611442565b61069f565b6101d26102dc36600461147b565b6106aa565b61028c6102ef366004611217565b600a6020525f908152604090205481565b61018761030e366004611217565b6106c2565b61028c6103213660046114f2565b6106cd565b61016a610334366004611545565b61076f565b6009546101a7906001600160a01b031681565b6101d261035a366004611429565b61079c565b5f610369826107d6565b92915050565b60605f805461037d9061156d565b80601f01602080910402602001604051908101604052809291908181526020018280546103a99061156d565b80156103f45780601f106103cb576101008083540402835291602001916103f4565b820191905f5260205f20905b8154815290600101906020018083116103d757829003601f168201915b5050505050905090565b5f610408826107fa565b505f828152600460205260409020546001600160a01b0316610369565b610430828233610832565b5050565b600b602052815f5260405f20818154811061044d575f80fd5b5f918252602090912001546001600160a01b03169150829050565b61047061083f565b610430828261086c565b6001600160a01b0382166104a857604051633250574960e11b81525f60048201526024015b60405180910390fd5b5f6104b48383336108bb565b9050836001600160a01b0316816001600160a01b031614610502576040516364283d7b60e01b81526001600160a01b038086166004830152602482018490528216604482015260640161049f565b50505050565b61052283838360405180602001604052805f8152506106aa565b505050565b6009546001600160a01b031633146105515760405162461bcd60e51b815260040161049f906115a5565b61055a816109ad565b50565b5f818152600b60209081526040918290208054835181840281018401909452808452606093928301828280156105ba57602002820191905f5260205f20905b81546001600160a01b0316815260019091019060200180831161059c575b50505050509050919050565b5f610369826107fa565b6009546001600160a01b031633146105fa5760405162461bcd60e51b815260040161049f906115a5565b5f918252600b6020908152604083208054600181018255908452922090910180546001600160a01b0319166001600160a01b03909216919091179055565b5f6001600160a01b038216610662576040516322718ad960e21b81525f600482015260240161049f565b506001600160a01b03165f9081526003602052604090205490565b61068561083f565b61068e5f6109e5565b565b60606001805461037d9061156d565b610430338383610a36565b6106b584848461047a565b6105023385858585610ad4565b606061036982610bfc565b6009545f906001600160a01b031633146106f95760405162461bcd60e51b815260040161049f906115a5565b60088054905f610708836115c8565b909155505060085461071a8582610d07565b610724818561086c565b5f818152600a60209081526040808320869055600b82528220805460018101825590835291200180546001600160a01b0387166001600160a01b031990911617905590509392505050565b6001600160a01b039182165f90815260056020908152604080832093909416825291909152205460ff1690565b6107a461083f565b6001600160a01b0381166107cd57604051631e4fbdf760e01b81525f600482015260240161049f565b61055a816109e5565b5f6001600160e01b03198216632483248360e11b1480610369575061036982610d20565b5f818152600260205260408120546001600160a01b03168061036957604051637e27328960e01b81526004810184905260240161049f565b6105228383836001610d6f565b6007546001600160a01b0316331461068e5760405163118cdaa760e01b815233600482015260240161049f565b5f8281526006602052604090206108838282611630565b506040518281527ff8e1a15aba9398e019f0b49df1a4fde98ee17ae345cb5f6b5e2c27f5033e8ce79060200160405180910390a15050565b5f828152600260205260408120546001600160a01b03908116908316156108e7576108e7818486610e73565b6001600160a01b03811615610921576109025f855f80610d6f565b6001600160a01b0381165f90815260036020526040902080545f190190555b6001600160a01b0385161561094f576001600160a01b0385165f908152600360205260409020805460010190555b5f8481526002602052604080822080546001600160a01b0319166001600160a01b0389811691821790925591518793918516917fddf252ad1be2c89b69c2b068fc378daa952ba7f163c4a11628f55a4df523b3ef91a4949350505050565b5f6109b95f835f6108bb565b90506001600160a01b03811661043057604051637e27328960e01b81526004810183905260240161049f565b600780546001600160a01b038381166001600160a01b0319831681179093556040519116919082907f8be0079c531659141344cd1fd0a4f28419497f9722a3daafe3b4186f6b6457e0905f90a35050565b6001600160a01b038216610a6857604051630b61174360e31b81526001600160a01b038316600482015260240161049f565b6001600160a01b038381165f81815260056020908152604080832094871680845294825291829020805460ff191686151590811790915591519182527f17307eab39ab6107e8899845ad3d59bd9653f200f220920489ca2b5937696c31910160405180910390a3505050565b6001600160a01b0383163b15610bf557604051630a85bd0160e11b81526001600160a01b0384169063150b7a0290610b169088908890879087906004016116ec565b6020604051808303815f875af1925050508015610b50575060408051601f3d908101601f19168201909252610b4d91810190611728565b60015b610bb7573d808015610b7d576040519150601f19603f3d011682016040523d82523d5f602084013e610b82565b606091505b5080515f03610baf57604051633250574960e11b81526001600160a01b038516600482015260240161049f565b805160208201fd5b6001600160e01b03198116630a85bd0160e11b14610bf357604051633250574960e11b81526001600160a01b038516600482015260240161049f565b505b5050505050565b6060610c07826107fa565b505f8281526006602052604081208054610c209061156d565b80601f0160208091040260200160405190810160405280929190818152602001828054610c4c9061156d565b8015610c975780601f10610c6e57610100808354040283529160200191610c97565b820191905f5260205f20905b815481529060010190602001808311610c7a57829003601f168201915b505050505090505f610cb360408051602081019091525f815290565b905080515f03610cc4575092915050565b815115610cf6578082604051602001610cde929190611743565b60405160208183030381529060405292505050919050565b610cff84610ed7565b949350505050565b610430828260405180602001604052805f815250610f48565b5f6001600160e01b031982166380ac58cd60e01b1480610d5057506001600160e01b03198216635b5e139f60e01b145b8061036957506301ffc9a760e01b6001600160e01b0319831614610369565b8080610d8357506001600160a01b03821615155b15610e44575f610d92846107fa565b90506001600160a01b03831615801590610dbe5750826001600160a01b0316816001600160a01b031614155b8015610dd15750610dcf818461076f565b155b15610dfa5760405163a9fbf51f60e01b81526001600160a01b038416600482015260240161049f565b8115610e425783856001600160a01b0316826001600160a01b03167f8c5be1e5ebec7d5bd14f71427d1e84f3dd0314c0f7b2291e5b200ac8c7c3b92560405160405180910390a45b505b50505f90815260046020526040902080546001600160a01b0319166001600160a01b0392909216919091179055565b610e7e838383610f5f565b610522576001600160a01b038316610eac57604051637e27328960e01b81526004810182905260240161049f565b60405163177e802f60e01b81526001600160a01b03831660048201526024810182905260440161049f565b6060610ee2826107fa565b505f610ef860408051602081019091525f815290565b90505f815111610f165760405180602001604052805f815250610f41565b80610f2084610fc0565b604051602001610f31929190611743565b6040516020818303038152906040525b9392505050565b610f528383611050565b610522335f858585610ad4565b5f6001600160a01b03831615801590610cff5750826001600160a01b0316846001600160a01b03161480610f985750610f98848461076f565b80610cff5750505f908152600460205260409020546001600160a01b03908116911614919050565b60605f610fcc836110b1565b60010190505f8167ffffffffffffffff811115610feb57610feb611291565b6040519080825280601f01601f191660200182016040528015611015576020820181803683370190505b5090508181016020015b5f19016f181899199a1a9b1b9c1cb0b131b232b360811b600a86061a8153600a850494508461101f57509392505050565b6001600160a01b03821661107957604051633250574960e11b81525f600482015260240161049f565b5f61108583835f6108bb565b90506001600160a01b03811615610522576040516339e3563760e11b81525f600482015260240161049f565b5f8072184f03e93ff9f4daa797ed6e38ed64bf6a1f0160401b83106110ef5772184f03e93ff9f4daa797ed6e38ed64bf6a1f0160401b830492506040015b6d04ee2d6d415b85acef8100000000831061111b576d04ee2d6d415b85acef8100000000830492506020015b662386f26fc10000831061113957662386f26fc10000830492506010015b6305f5e1008310611151576305f5e100830492506008015b612710831061116557612710830492506004015b60648310611177576064830492506002015b600a83106103695760010192915050565b6001600160e01b03198116811461055a575f80fd5b5f602082840312156111ad575f80fd5b8135610f4181611188565b5f5b838110156111d25781810151838201526020016111ba565b50505f910152565b5f81518084526111f18160208601602086016111b8565b601f01601f19169290920160200192915050565b602081525f610f4160208301846111da565b5f60208284031215611227575f80fd5b5035919050565b80356001600160a01b0381168114611244575f80fd5b919050565b5f806040838503121561125a575f80fd5b6112638361122e565b946020939093013593505050565b5f8060408385031215611282575f80fd5b50508035926020909101359150565b634e487b7160e01b5f52604160045260245ffd5b5f67ffffffffffffffff808411156112bf576112bf611291565b604051601f8501601f19908116603f011681019082821181831017156112e7576112e7611291565b816040528093508581528686860111156112ff575f80fd5b858560208301375f602087830101525050509392505050565b5f82601f830112611327575f80fd5b610f41838335602085016112a5565b5f8060408385031215611347575f80fd5b82359150602083013567ffffffffffffffff811115611364575f80fd5b61137085828601611318565b9150509250929050565b5f805f6060848603121561138c575f80fd5b6113958461122e565b92506113a36020850161122e565b9150604084013590509250925092565b602080825282518282018190525f9190848201906040850190845b818110156113f35783516001600160a01b0316835292840192918401916001016113ce565b50909695505050505050565b5f8060408385031215611410575f80fd5b823591506114206020840161122e565b90509250929050565b5f60208284031215611439575f80fd5b610f418261122e565b5f8060408385031215611453575f80fd5b61145c8361122e565b915060208301358015158114611470575f80fd5b809150509250929050565b5f805f806080858703121561148e575f80fd5b6114978561122e565b93506114a56020860161122e565b925060408501359150606085013567ffffffffffffffff8111156114c7575f80fd5b8501601f810187136114d7575f80fd5b6114e6878235602084016112a5565b91505092959194509250565b5f805f60608486031215611504575f80fd5b61150d8461122e565b9250602084013567ffffffffffffffff811115611528575f80fd5b61153486828701611318565b925050604084013590509250925092565b5f8060408385031215611556575f80fd5b61155f8361122e565b91506114206020840161122e565b600181811c9082168061158157607f821691505b60208210810361159f57634e487b7160e01b5f52602260045260245ffd5b50919050565b6020808252600990820152686f6e6c7920636f726560b81b604082015260600190565b5f600182016115e557634e487b7160e01b5f52601160045260245ffd5b5060010190565b601f82111561052257805f5260205f20601f840160051c810160208510156116115750805b601f840160051c820191505b81811015610bf5575f815560010161161d565b815167ffffffffffffffff81111561164a5761164a611291565b61165e81611658845461156d565b846115ec565b602080601f831160018114611691575f841561167a5750858301515b5f19600386901b1c1916600185901b178555610bf3565b5f85815260208120601f198616915b828110156116bf578886015182559484019460019091019084016116a0565b50858210156116dc57878501515f19600388901b60f8161c191681555b5050505050600190811b01905550565b6001600160a01b03858116825284166020820152604081018390526080606082018190525f9061171e908301846111da565b9695505050505050565b5f60208284031215611738575f80fd5b8151610f4181611188565b5f83516117548184602088016111b8565b8351908301906117688183602088016111b8565b0194935050505056fea264697066735822122026f412f1975b73cf439cb6a89a5a792b0773133ea8578b2a6bf15b623e0c2a7964736f6c63430008180033","linkReferences":{}},"methodIdentifiers":{"buyTicket(uint256)":"67dd74ca","cancelListing(uint256)":"305a67a8","checkInAndMintPOAP(uint256,uint256,string,uint256,uint256,bytes)":"6c65d6d5","emergencyBurnTicket(uint256)":"2b6abcfc","getTicketProvenance(uint256)":"8bd45c65","listTicket(uint256,uint256)":"305a905a","listings(uint256)":"de74e57b","mantleSigner()":"1b7b5b4b","mintTicketWithMantle(address,string,uint256,uint256,uint256,bytes)":"50810e34","owner()":"8da5cb5b","poapSoulbound()":"d7cd8e15","poaps()":"36eac57b","renounceOwnership()":"715018a6","reputation(address)":"b9f79451","rules(uint256)":"04d6ded4","setEventRules(uint256,address,uint256,uint16)":"7b6bd7d4","setMantleSigner(address)":"d1be00ed","setPOAPURI(uint256,string)":"c8cedf1a","setReputation(address,uint256)":"b120c16a","setTicketURI(uint256,string)":"6bb03a87","ticketTransfers(uint256)":"e5e816a0","tickets()":"21858521","transferOwnership(address)":"f2fde38b","usedProof(bytes32)":"6e20ffbd"},"id":2}