{
  "_format": "hh-sol-artifact-1",
  "contractName": "TicketNFT",
  "sourceName": "contracts/ticket.sol",
  "abi": [
    {
      "inputs": [
        {
          "internalType": "address",
          "name": "_core",
          "type": "address"
        }
      ],
      "stateMutability": "nonpayable",
      "type": "constructor"
    },
    {
      "inputs": [
        {
          "internalType": "address",
          "name": "sender",
          "type": "address"
        },
        {
          "internalType": "uint256",
          "name": "tokenId",
          "type": "uint256"
        },
        {
          "internalType": "address",
          "name": "owner",
          "type": "address"
        }
      ],
      "name": "ERC721IncorrectOwner",
      "type": "error"
    },
    {
      "inputs": [
        {
          "internalType": "address",
          "name": "operator",
          "type": "address"
        },
        {
          "internalType": "uint256",
          "name": "tokenId",
          "type": "uint256"
        }
      ],
      "name": "ERC721InsufficientApproval",
      "type": "error"
    },
    {
      "inputs": [
        {
          "internalType": "address",
          "name": "approver",
          "type": "address"
        }
      ],
      "name": "ERC721InvalidApprover",
      "type": "error"
    },
    {
      "inputs": [
        {
          "internalType": "address",
          "name": "operator",
          "type": "address"
        }
      ],
      "name": "ERC721InvalidOperator",
      "type": "error"
    },
    {
      "inputs": [
        {
          "internalType": "address",
          "name": "owner",
          "type": "address"
        }
      ],
      "name": "ERC721InvalidOwner",
      "type": "error"
    },
    {
      "inputs": [
        {
          "internalType": "address",
          "name": "receiver",
          "type": "address"
        }
      ],
      "name": "ERC721InvalidReceiver",
      "type": "error"
    },
    {
      "inputs": [
        {
          "internalType": "address",
          "name": "sender",
          "type": "address"
        }
      ],
      "name": "ERC721InvalidSender",
      "type": "error"
    },
    {
      "inputs": [
        {
          "internalType": "uint256",
          "name": "tokenId",
          "type": "uint256"
        }
      ],
      "name": "ERC721NonexistentToken",
      "type": "error"
    },
    {
      "inputs": [
        {
          "internalType": "address",
          "name": "owner",
          "type": "address"
        }
      ],
      "name": "OwnableInvalidOwner",
      "type": "error"
    },
    {
      "inputs": [
        {
          "internalType": "address",
          "name": "account",
          "type": "address"
        }
      ],
      "name": "OwnableUnauthorizedAccount",
      "type": "error"
    },
    {
      "anonymous": false,
      "inputs": [
        {
          "indexed": true,
          "internalType": "address",
          "name": "owner",
          "type": "address"
        },
        {
          "indexed": true,
          "internalType": "address",
          "name": "approved",
          "type": "address"
        },
        {
          "indexed": true,
          "internalType": "uint256",
          "name": "tokenId",
          "type": "uint256"
        }
      ],
      "name": "Approval",
      "type": "event"
    },
    {
      "anonymous": false,
      "inputs": [
        {
          "indexed": true,
          "internalType": "address",
          "name": "owner",
          "type": "address"
        },
        {
          "indexed": true,
          "internalType": "address",
          "name": "operator",
          "type": "address"
        },
        {
          "indexed": false,
          "internalType": "bool",
          "name": "approved",
          "type": "bool"
        }
      ],
      "name": "ApprovalForAll",
      "type": "event"
    },
    {
      "anonymous": false,
      "inputs": [
        {
          "indexed": false,
          "internalType": "uint256",
          "name": "_fromTokenId",
          "type": "uint256"
        },
        {
          "indexed": false,
          "internalType": "uint256",
          "name": "_toTokenId",
          "type": "uint256"
        }
      ],
      "name": "BatchMetadataUpdate",
      "type": "event"
    },
    {
      "anonymous": false,
      "inputs": [
        {
          "indexed": false,
          "internalType": "uint256",
          "name": "_tokenId",
          "type": "uint256"
        }
      ],
      "name": "MetadataUpdate",
      "type": "event"
    },
    {
      "anonymous": false,
      "inputs": [
        {
          "indexed": true,
          "internalType": "address",
          "name": "previousOwner",
          "type": "address"
        },
        {
          "indexed": true,
          "internalType": "address",
          "name": "newOwner",
          "type": "address"
        }
      ],
      "name": "OwnershipTransferred",
      "type": "event"
    },
    {
      "anonymous": false,
      "inputs": [
        {
          "indexed": true,
          "internalType": "address",
          "name": "from",
          "type": "address"
        },
        {
          "indexed": true,
          "internalType": "address",
          "name": "to",
          "type": "address"
        },
        {
          "indexed": true,
          "internalType": "uint256",
          "name": "tokenId",
          "type": "uint256"
        }
      ],
      "name": "Transfer",
      "type": "event"
    },
    {
      "inputs": [
        {
          "internalType": "address",
          "name": "to",
          "type": "address"
        },
        {
          "internalType": "uint256",
          "name": "tokenId",
          "type": "uint256"
        }
      ],
      "name": "approve",
      "outputs": [],
      "stateMutability": "nonpayable",
      "type": "function"
    },
    {
      "inputs": [
        {
          "internalType": "address",
          "name": "owner",
          "type": "address"
        }
      ],
      "name": "balanceOf",
      "outputs": [
        {
          "internalType": "uint256",
          "name": "",
          "type": "uint256"
        }
      ],
      "stateMutability": "view",
      "type": "function"
    },
    {
      "inputs": [
        {
          "internalType": "uint256",
          "name": "tokenId",
          "type": "uint256"
        }
      ],
      "name": "burn",
      "outputs": [],
      "stateMutability": "nonpayable",
      "type": "function"
    },
    {
      "inputs": [],
      "name": "core",
      "outputs": [
        {
          "internalType": "address",
          "name": "",
          "type": "address"
        }
      ],
      "stateMutability": "view",
      "type": "function"
    },
    {
      "inputs": [
        {
          "internalType": "uint256",
          "name": "tokenId",
          "type": "uint256"
        }
      ],
      "name": "getApproved",
      "outputs": [
        {
          "internalType": "address",
          "name": "",
          "type": "address"
        }
      ],
      "stateMutability": "view",
      "type": "function"
    },
    {
      "inputs": [
        {
          "internalType": "uint256",
          "name": "tokenId",
          "type": "uint256"
        }
      ],
      "name": "getProvenance",
      "outputs": [
        {
          "internalType": "address[]",
          "name": "",
          "type": "address[]"
        }
      ],
      "stateMutability": "view",
      "type": "function"
    },
    {
      "inputs": [
        {
          "internalType": "address",
          "name": "owner",
          "type": "address"
        },
        {
          "internalType": "address",
          "name": "operator",
          "type": "address"
        }
      ],
      "name": "isApprovedForAll",
      "outputs": [
        {
          "internalType": "bool",
          "name": "",
          "type": "bool"
        }
      ],
      "stateMutability": "view",
      "type": "function"
    },
    {
      "inputs": [
        {
          "internalType": "address",
          "name": "to",
          "type": "address"
        },
        {
          "internalType": "string",
          "name": "uri",
          "type": "string"
        },
        {
          "internalType": "uint256",
          "name": "eventId",
          "type": "uint256"
        }
      ],
      "name": "mintTicket",
      "outputs": [
        {
          "internalType": "uint256",
          "name": "",
          "type": "uint256"
        }
      ],
      "stateMutability": "nonpayable",
      "type": "function"
    },
    {
      "inputs": [],
      "name": "name",
      "outputs": [
        {
          "internalType": "string",
          "name": "",
          "type": "string"
        }
      ],
      "stateMutability": "view",
      "type": "function"
    },
    {
      "inputs": [],
      "name": "owner",
      "outputs": [
        {
          "internalType": "address",
          "name": "",
          "type": "address"
        }
      ],
      "stateMutability": "view",
      "type": "function"
    },
    {
      "inputs": [
        {
          "internalType": "uint256",
          "name": "tokenId",
          "type": "uint256"
        }
      ],
      "name": "ownerOf",
      "outputs": [
        {
          "internalType": "address",
          "name": "",
          "type": "address"
        }
      ],
      "stateMutability": "view",
      "type": "function"
    },
    {
      "inputs": [
        {
          "internalType": "uint256",
          "name": "",
          "type": "uint256"
        },
        {
          "internalType": "uint256",
          "name": "",
          "type": "uint256"
        }
      ],
      "name": "provenance",
      "outputs": [
        {
          "internalType": "address",
          "name": "",
          "type": "address"
        }
      ],
      "stateMutability": "view",
      "type": "function"
    },
    {
      "inputs": [
        {
          "internalType": "uint256",
          "name": "tokenId",
          "type": "uint256"
        },
        {
          "internalType": "address",
          "name": "to",
          "type": "address"
        }
      ],
      "name": "recordProvenance",
      "outputs": [],
      "stateMutability": "nonpayable",
      "type": "function"
    },
    {
      "inputs": [],
      "name": "renounceOwnership",
      "outputs": [],
      "stateMutability": "nonpayable",
      "type": "function"
    },
    {
      "inputs": [
        {
          "internalType": "address",
          "name": "from",
          "type": "address"
        },
        {
          "internalType": "address",
          "name": "to",
          "type": "address"
        },
        {
          "internalType": "uint256",
          "name": "tokenId",
          "type": "uint256"
        }
      ],
      "name": "safeTransferFrom",
      "outputs": [],
      "stateMutability": "nonpayable",
      "type": "function"
    },
    {
      "inputs": [
        {
          "internalType": "address",
          "name": "from",
          "type": "address"
        },
        {
          "internalType": "address",
          "name": "to",
          "type": "address"
        },
        {
          "internalType": "uint256",
          "name": "tokenId",
          "type": "uint256"
        },
        {
          "internalType": "bytes",
          "name": "data",
          "type": "bytes"
        }
      ],
      "name": "safeTransferFrom",
      "outputs": [],
      "stateMutability": "nonpayable",
      "type": "function"
    },
    {
      "inputs": [
        {
          "internalType": "address",
          "name": "operator",
          "type": "address"
        },
        {
          "internalType": "bool",
          "name": "approved",
          "type": "bool"
        }
      ],
      "name": "setApprovalForAll",
      "outputs": [],
      "stateMutability": "nonpayable",
      "type": "function"
    },
    {
      "inputs": [
        {
          "internalType": "uint256",
          "name": "tokenId",
          "type": "uint256"
        },
        {
          "internalType": "string",
          "name": "tokenURI_",
          "type": "string"
        }
      ],
      "name": "setTokenURI",
      "outputs": [],
      "stateMutability": "nonpayable",
      "type": "function"
    },
    {
      "inputs": [
        {
          "internalType": "bytes4",
          "name": "interfaceId",
          "type": "bytes4"
        }
      ],
      "name": "supportsInterface",
      "outputs": [
        {
          "internalType": "bool",
          "name": "",
          "type": "bool"
        }
      ],
      "stateMutability": "view",
      "type": "function"
    },
    {
      "inputs": [],
      "name": "symbol",
      "outputs": [
        {
          "internalType": "string",
          "name": "",
          "type": "string"
        }
      ],
      "stateMutability": "view",
      "type": "function"
    },
    {
      "inputs": [
        {
          "internalType": "uint256",
          "name": "",
          "type": "uint256"
        }
      ],
      "name": "ticketEvent",
      "outputs": [
        {
          "internalType": "uint256",
          "name": "",
          "type": "uint256"
        }
      ],
      "stateMutability": "view",
      "type": "function"
    },
    {
      "inputs": [
        {
          "internalType": "uint256",
          "name": "tokenId",
          "type": "uint256"
        }
      ],
      "name": "tokenURI",
      "outputs": [
        {
          "internalType": "string",
          "name": "",
          "type": "string"
        }
      ],
      "stateMutability": "view",
      "type": "function"
    },
    {
      "inputs": [
        {
          "internalType": "address",
          "name": "from",
          "type": "address"
        },
        {
          "internalType": "address",
          "name": "to",
          "type": "address"
        },
        {
          "internalType": "uint256",
          "name": "tokenId",
          "type": "uint256"
        }
      ],
      "name": "transferFrom",
      "outputs": [],
      "stateMutability": "nonpayable",
      "type": "function"
    },
    {
      "inputs": [
        {
          "internalType": "address",
          "name": "newOwner",
          "type": "address"
        }
      ],
      "name": "transferOwnership",
      "outputs": [],
      "stateMutability": "nonpayable",
      "type": "function"
    }
  ],
  "bytecode": "0x608060405234801561001057600080fd5b50604051611b2d380380611b2d83398101604081905261002f9161013f565b806040518060400160405280600c81526020016b105d985c9848151a58dad95d60a21b8152506040518060400160405280600381526020016210559560ea1b8152508160009081610080919061020e565b50600161008d828261020e565b5050506001600160a01b0381166100be57604051631e4fbdf760e01b81526000600482015260240160405180910390fd5b6100c7816100ed565b50600980546001600160a01b0319166001600160a01b03929092169190911790556102cc565b600780546001600160a01b038381166001600160a01b0319831681179093556040519116919082907f8be0079c531659141344cd1fd0a4f28419497f9722a3daafe3b4186f6b6457e090600090a35050565b60006020828403121561015157600080fd5b81516001600160a01b038116811461016857600080fd5b9392505050565b634e487b7160e01b600052604160045260246000fd5b600181811c9082168061019957607f821691505b6020821081036101b957634e487b7160e01b600052602260045260246000fd5b50919050565b601f82111561020957806000526020600020601f840160051c810160208510156101e65750805b601f840160051c820191505b8181101561020657600081556001016101f2565b50505b505050565b81516001600160401b038111156102275761022761016f565b61023b816102358454610185565b846101bf565b6020601f82116001811461026f57600083156102575750848201515b600019600385901b1c1916600184901b178455610206565b600084815260208120601f198516915b8281101561029f578785015182556020948501946001909201910161027f565b50848210156102bd5786840151600019600387901b60f8161c191681555b50505050600190811b01905550565b611852806102db6000396000f3fe608060405234801561001057600080fd5b50600436106101585760003560e01c806370a08231116100c3578063c20b324d1161007c578063c20b324d146102e7578063c87b56dd14610307578063cf7a31411461031a578063e985e9c51461032d578063f2f4eb2614610340578063f2fde38b1461035357600080fd5b806370a082311461027f578063715018a6146102a05780638da5cb5b146102a857806395d89b41146102b9578063a22cb465146102c1578063b88d4fde146102d457600080fd5b806323b872dd1161011557806323b872dd1461020057806342842e0e1461021357806342966c681461022657806360f1233d146102395780636352211e1461025957806367f444a51461026c57600080fd5b806301ffc9a71461015d57806306fdde0314610185578063081812fc1461019a578063095ea7b3146101c55780631092f9ee146101da578063162094c4146101ed575b600080fd5b61017061016b366004611207565b610366565b60405190151581526020015b60405180910390f35b61018d610386565b60405161017c9190611274565b6101ad6101a8366004611287565b610418565b6040516001600160a01b03909116815260200161017c565b6101d86101d33660046112bc565b610441565b005b6101ad6101e83660046112e6565b610450565b6101d86101fb3660046113b8565b610488565b6101d861020e3660046113ff565b61049a565b6101d86102213660046113ff565b61052a565b6101d8610234366004611287565b61054a565b61024c610247366004611287565b610580565b60405161017c919061143c565b6101ad610267366004611287565b6105ec565b6101d861027a366004611488565b6105f7565b61029261028d3660046114b4565b610660565b60405190815260200161017c565b6101d86106a8565b6007546001600160a01b03166101ad565b61018d6106bc565b6101d86102cf3660046114cf565b6106cb565b6101d86102e236600461150b565b6106d6565b6102926102f5366004611287565b600a6020526000908152604090205481565b61018d610315366004611287565b6106ee565b610292610328366004611587565b6106f9565b61017061033b3660046115df565b61079e565b6009546101ad906001600160a01b031681565b6101d86103613660046114b4565b6107cc565b600061037182610807565b80610380575061038082610857565b92915050565b60606000805461039590611609565b80601f01602080910402602001604051908101604052809291908181526020018280546103c190611609565b801561040e5780601f106103e35761010080835404028352916020019161040e565b820191906000526020600020905b8154815290600101906020018083116103f157829003601f168201915b5050505050905090565b60006104238261087c565b506000828152600460205260409020546001600160a01b0316610380565b61044c8282336108b5565b5050565b600b602052816000526040600020818154811061046c57600080fd5b6000918252602090912001546001600160a01b03169150829050565b6104906108c2565b61044c82826108ef565b6001600160a01b0382166104c957604051633250574960e11b8152600060048201526024015b60405180910390fd5b60006104d683833361093f565b9050836001600160a01b0316816001600160a01b031614610524576040516364283d7b60e01b81526001600160a01b03808616600483015260248201849052821660448201526064016104c0565b50505050565b610545838383604051806020016040528060008152506106d6565b505050565b6009546001600160a01b031633146105745760405162461bcd60e51b81526004016104c090611643565b61057d81610954565b50565b6000818152600b60209081526040918290208054835181840281018401909452808452606093928301828280156105e057602002820191906000526020600020905b81546001600160a01b031681526001909101906020018083116105c2575b50505050509050919050565b60006103808261087c565b6009546001600160a01b031633146106215760405162461bcd60e51b81526004016104c090611643565b6000918252600b6020908152604083208054600181018255908452922090910180546001600160a01b0319166001600160a01b03909216919091179055565b60006001600160a01b03821661068c576040516322718ad960e21b8152600060048201526024016104c0565b506001600160a01b031660009081526003602052604090205490565b6106b06108c2565b6106ba600061098f565b565b60606001805461039590611609565b61044c3383836109e1565b6106e184848461049a565b6105243385858585610a80565b606061038082610bab565b6009546000906001600160a01b031633146107265760405162461bcd60e51b81526004016104c090611643565b6008805490600061073683611666565b90915550506008546107488582610cb4565b61075281856108ef565b6000818152600a60209081526040808320869055600b82528220805460018101825590835291200180546001600160a01b0387166001600160a01b031990911617905590509392505050565b6001600160a01b03918216600090815260056020908152604080832093909416825291909152205460ff1690565b6107d46108c2565b6001600160a01b0381166107fe57604051631e4fbdf760e01b8152600060048201526024016104c0565b61057d8161098f565b60006001600160e01b031982166380ac58cd60e01b148061083857506001600160e01b03198216635b5e139f60e01b145b8061038057506301ffc9a760e01b6001600160e01b0319831614610380565b60006001600160e01b03198216632483248360e11b1480610380575061038082610807565b6000818152600260205260408120546001600160a01b03168061038057604051637e27328960e01b8152600481018490526024016104c0565b6105458383836001610cce565b6007546001600160a01b031633146106ba5760405163118cdaa760e01b81523360048201526024016104c0565b600082815260066020526040902061090782826116d4565b506040518281527ff8e1a15aba9398e019f0b49df1a4fde98ee17ae345cb5f6b5e2c27f5033e8ce79060200160405180910390a15050565b600061094c848484610dd4565b949350505050565b6000610963600083600061093f565b90506001600160a01b03811661044c57604051637e27328960e01b8152600481018390526024016104c0565b600780546001600160a01b038381166001600160a01b0319831681179093556040519116919082907f8be0079c531659141344cd1fd0a4f28419497f9722a3daafe3b4186f6b6457e090600090a35050565b6001600160a01b038216610a1357604051630b61174360e31b81526001600160a01b03831660048201526024016104c0565b6001600160a01b03838116600081815260056020908152604080832094871680845294825291829020805460ff191686151590811790915591519182527f17307eab39ab6107e8899845ad3d59bd9653f200f220920489ca2b5937696c31910160405180910390a3505050565b6001600160a01b0383163b15610ba457604051630a85bd0160e11b81526001600160a01b0384169063150b7a0290610ac2908890889087908790600401611793565b6020604051808303816000875af1925050508015610afd575060408051601f3d908101601f19168201909252610afa918101906117d0565b60015b610b66573d808015610b2b576040519150601f19603f3d011682016040523d82523d6000602084013e610b30565b606091505b508051600003610b5e57604051633250574960e11b81526001600160a01b03851660048201526024016104c0565b805160208201fd5b6001600160e01b03198116630a85bd0160e11b14610ba257604051633250574960e11b81526001600160a01b03851660048201526024016104c0565b505b5050505050565b6060610bb68261087c565b5060008281526006602052604081208054610bd090611609565b80601f0160208091040260200160405190810160405280929190818152602001828054610bfc90611609565b8015610c495780601f10610c1e57610100808354040283529160200191610c49565b820191906000526020600020905b815481529060010190602001808311610c2c57829003601f168201915b505050505090506000610c6760408051602081019091526000815290565b90508051600003610c79575092915050565b815115610cab578082604051602001610c939291906117ed565b60405160208183030381529060405292505050919050565b61094c84610ecd565b61044c828260405180602001604052806000815250610f42565b8080610ce257506001600160a01b03821615155b15610da4576000610cf28461087c565b90506001600160a01b03831615801590610d1e5750826001600160a01b0316816001600160a01b031614155b8015610d315750610d2f818461079e565b155b15610d5a5760405163a9fbf51f60e01b81526001600160a01b03841660048201526024016104c0565b8115610da25783856001600160a01b0316826001600160a01b03167f8c5be1e5ebec7d5bd14f71427d1e84f3dd0314c0f7b2291e5b200ac8c7c3b92560405160405180910390a45b505b5050600090815260046020526040902080546001600160a01b0319166001600160a01b0392909216919091179055565b6000828152600260205260408120546001600160a01b0390811690831615610e0157610e01818486610f5a565b6001600160a01b03811615610e3f57610e1e600085600080610cce565b6001600160a01b038116600090815260036020526040902080546000190190555b6001600160a01b03851615610e6e576001600160a01b0385166000908152600360205260409020805460010190555b60008481526002602052604080822080546001600160a01b0319166001600160a01b0389811691821790925591518793918516917fddf252ad1be2c89b69c2b068fc378daa952ba7f163c4a11628f55a4df523b3ef91a4949350505050565b6060610ed88261087c565b506000610ef060408051602081019091526000815290565b90506000815111610f105760405180602001604052806000815250610f3b565b80610f1a84610fbe565b604051602001610f2b9291906117ed565b6040516020818303038152906040525b9392505050565b610f4c8383611051565b610545336000858585610a80565b610f658383836110b6565b610545576001600160a01b038316610f9357604051637e27328960e01b8152600481018290526024016104c0565b60405163177e802f60e01b81526001600160a01b0383166004820152602481018290526044016104c0565b60606000610fcb83611119565b600101905060008167ffffffffffffffff811115610feb57610feb611308565b6040519080825280601f01601f191660200182016040528015611015576020820181803683370190505b5090508181016020015b600019016f181899199a1a9b1b9c1cb0b131b232b360811b600a86061a8153600a850494508461101f57509392505050565b6001600160a01b03821661107b57604051633250574960e11b8152600060048201526024016104c0565b60006110898383600061093f565b90506001600160a01b03811615610545576040516339e3563760e11b8152600060048201526024016104c0565b60006001600160a01b0383161580159061094c5750826001600160a01b0316846001600160a01b031614806110f057506110f0848461079e565b8061094c5750506000908152600460205260409020546001600160a01b03908116911614919050565b60008072184f03e93ff9f4daa797ed6e38ed64bf6a1f0160401b83106111585772184f03e93ff9f4daa797ed6e38ed64bf6a1f0160401b830492506040015b6d04ee2d6d415b85acef81000000008310611184576d04ee2d6d415b85acef8100000000830492506020015b662386f26fc1000083106111a257662386f26fc10000830492506010015b6305f5e10083106111ba576305f5e100830492506008015b61271083106111ce57612710830492506004015b606483106111e0576064830492506002015b600a83106103805760010192915050565b6001600160e01b03198116811461057d57600080fd5b60006020828403121561121957600080fd5b8135610f3b816111f1565b60005b8381101561123f578181015183820152602001611227565b50506000910152565b60008151808452611260816020860160208601611224565b601f01601f19169290920160200192915050565b602081526000610f3b6020830184611248565b60006020828403121561129957600080fd5b5035919050565b80356001600160a01b03811681146112b757600080fd5b919050565b600080604083850312156112cf57600080fd5b6112d8836112a0565b946020939093013593505050565b600080604083850312156112f957600080fd5b50508035926020909101359150565b634e487b7160e01b600052604160045260246000fd5b60008067ffffffffffffffff84111561133957611339611308565b50604051601f19601f85018116603f0116810181811067ffffffffffffffff8211171561136857611368611308565b60405283815290508082840185101561138057600080fd5b83836020830137600060208583010152509392505050565b600082601f8301126113a957600080fd5b610f3b8383356020850161131e565b600080604083850312156113cb57600080fd5b82359150602083013567ffffffffffffffff8111156113e957600080fd5b6113f585828601611398565b9150509250929050565b60008060006060848603121561141457600080fd5b61141d846112a0565b925061142b602085016112a0565b929592945050506040919091013590565b602080825282518282018190526000918401906040840190835b8181101561147d5783516001600160a01b0316835260209384019390920191600101611456565b509095945050505050565b6000806040838503121561149b57600080fd5b823591506114ab602084016112a0565b90509250929050565b6000602082840312156114c657600080fd5b610f3b826112a0565b600080604083850312156114e257600080fd5b6114eb836112a0565b91506020830135801515811461150057600080fd5b809150509250929050565b6000806000806080858703121561152157600080fd5b61152a856112a0565b9350611538602086016112a0565b925060408501359150606085013567ffffffffffffffff81111561155b57600080fd5b8501601f8101871361156c57600080fd5b61157b8782356020840161131e565b91505092959194509250565b60008060006060848603121561159c57600080fd5b6115a5846112a0565b9250602084013567ffffffffffffffff8111156115c157600080fd5b6115cd86828701611398565b93969395505050506040919091013590565b600080604083850312156115f257600080fd5b6115fb836112a0565b91506114ab602084016112a0565b600181811c9082168061161d57607f821691505b60208210810361163d57634e487b7160e01b600052602260045260246000fd5b50919050565b6020808252600990820152686f6e6c7920636f726560b81b604082015260600190565b60006001820161168657634e487b7160e01b600052601160045260246000fd5b5060010190565b601f82111561054557806000526020600020601f840160051c810160208510156116b45750805b601f840160051c820191505b81811015610ba457600081556001016116c0565b815167ffffffffffffffff8111156116ee576116ee611308565b611702816116fc8454611609565b8461168d565b6020601f821160018114611736576000831561171e5750848201515b600019600385901b1c1916600184901b178455610ba4565b600084815260208120601f198516915b828110156117665787850151825560209485019460019092019101611746565b50848210156117845786840151600019600387901b60f8161c191681555b50505050600190811b01905550565b6001600160a01b03858116825284166020820152604081018390526080606082018190526000906117c690830184611248565b9695505050505050565b6000602082840312156117e257600080fd5b8151610f3b816111f1565b600083516117ff818460208801611224565b835190830190611813818360208801611224565b0194935050505056fea2646970667358221220815645e548e043fd5796ca81272d875b67157a070ff8a2b2f5874e27477eb66364736f6c634300081c0033",
  "linkReferences": {},
  "deployedLinkReferences": {}
}