{
  "_format": "hh-sol-artifact-1",
  "contractName": "AvaraCore",
  "sourceName": "contracts/avara.sol",
  "abi": [
    {
      "inputs": [
        {
          "internalType": "address",
          "name": "_krnlSigner",
          "type": "address"
        }
      ],
      "stateMutability": "nonpayable",
      "type": "constructor"
    },
    {
      "inputs": [],
      "name": "ECDSAInvalidSignature",
      "type": "error"
    },
    {
      "inputs": [
        {
          "internalType": "uint256",
          "name": "length",
          "type": "uint256"
        }
      ],
      "name": "ECDSAInvalidSignatureLength",
      "type": "error"
    },
    {
      "inputs": [
        {
          "internalType": "bytes32",
          "name": "s",
          "type": "bytes32"
        }
      ],
      "name": "ECDSAInvalidSignatureS",
      "type": "error"
    },
    {
      "inputs": [
        {
          "internalType": "address",
          "name": "owner",
          "type": "address"
        }
      ],
      "name": "OwnableInvalidOwner",
      "type": "error"
    },
    {
      "inputs": [
        {
          "internalType": "address",
          "name": "account",
          "type": "address"
        }
      ],
      "name": "OwnableUnauthorizedAccount",
      "type": "error"
    },
    {
      "inputs": [],
      "name": "ReentrancyGuardReentrantCall",
      "type": "error"
    },
    {
      "anonymous": false,
      "inputs": [
        {
          "indexed": true,
          "internalType": "uint256",
          "name": "ticketId",
          "type": "uint256"
        },
        {
          "indexed": false,
          "internalType": "uint256",
          "name": "price",
          "type": "uint256"
        },
        {
          "indexed": false,
          "internalType": "address",
          "name": "seller",
          "type": "address"
        }
      ],
      "name": "Listed",
      "type": "event"
    },
    {
      "anonymous": false,
      "inputs": [
        {
          "indexed": true,
          "internalType": "address",
          "name": "previousOwner",
          "type": "address"
        },
        {
          "indexed": true,
          "internalType": "address",
          "name": "newOwner",
          "type": "address"
        }
      ],
      "name": "OwnershipTransferred",
      "type": "event"
    },
    {
      "anonymous": false,
      "inputs": [
        {
          "indexed": true,
          "internalType": "uint256",
          "name": "poapId",
          "type": "uint256"
        },
        {
          "indexed": true,
          "internalType": "uint256",
          "name": "eventId",
          "type": "uint256"
        },
        {
          "indexed": true,
          "internalType": "address",
          "name": "attendee",
          "type": "address"
        }
      ],
      "name": "POAPMinted",
      "type": "event"
    },
    {
      "anonymous": false,
      "inputs": [
        {
          "indexed": true,
          "internalType": "uint256",
          "name": "eventId",
          "type": "uint256"
        },
        {
          "indexed": false,
          "internalType": "uint256",
          "name": "maxPrice",
          "type": "uint256"
        },
        {
          "indexed": false,
          "internalType": "uint16",
          "name": "maxTransfers",
          "type": "uint16"
        }
      ],
      "name": "ResaleRuleUpdated",
      "type": "event"
    },
    {
      "anonymous": false,
      "inputs": [
        {
          "indexed": true,
          "internalType": "uint256",
          "name": "ticketId",
          "type": "uint256"
        },
        {
          "indexed": true,
          "internalType": "address",
          "name": "buyer",
          "type": "address"
        },
        {
          "indexed": false,
          "internalType": "uint256",
          "name": "price",
          "type": "uint256"
        }
      ],
      "name": "Sale",
      "type": "event"
    },
    {
      "anonymous": false,
      "inputs": [
        {
          "indexed": true,
          "internalType": "uint256",
          "name": "ticketId",
          "type": "uint256"
        },
        {
          "indexed": true,
          "internalType": "uint256",
          "name": "eventId",
          "type": "uint256"
        },
        {
          "indexed": true,
          "internalType": "address",
          "name": "owner",
          "type": "address"
        }
      ],
      "name": "TicketMinted",
      "type": "event"
    },
    {
      "anonymous": false,
      "inputs": [
        {
          "indexed": true,
          "internalType": "uint256",
          "name": "ticketId",
          "type": "uint256"
        },
        {
          "indexed": true,
          "internalType": "uint256",
          "name": "eventId",
          "type": "uint256"
        },
        {
          "indexed": true,
          "internalType": "address",
          "name": "scanner",
          "type": "address"
        }
      ],
      "name": "TicketScanned",
      "type": "event"
    },
    {
      "inputs": [
        {
          "internalType": "uint256",
          "name": "ticketId",
          "type": "uint256"
        }
      ],
      "name": "buyTicket",
      "outputs": [],
      "stateMutability": "payable",
      "type": "function"
    },
    {
      "inputs": [
        {
          "internalType": "uint256",
          "name": "ticketId",
          "type": "uint256"
        }
      ],
      "name": "cancelListing",
      "outputs": [],
      "stateMutability": "nonpayable",
      "type": "function"
    },
    {
      "inputs": [
        {
          "internalType": "uint256",
          "name": "ticketId",
          "type": "uint256"
        },
        {
          "internalType": "uint256",
          "name": "eventId",
          "type": "uint256"
        },
        {
          "internalType": "string",
          "name": "poapUri",
          "type": "string"
        },
        {
          "internalType": "uint256",
          "name": "timestamp",
          "type": "uint256"
        },
        {
          "internalType": "uint256",
          "name": "nonce",
          "type": "uint256"
        },
        {
          "internalType": "bytes",
          "name": "krnlSignature",
          "type": "bytes"
        }
      ],
      "name": "checkInAndMintPOAP",
      "outputs": [
        {
          "internalType": "uint256",
          "name": "",
          "type": "uint256"
        }
      ],
      "stateMutability": "nonpayable",
      "type": "function"
    },
    {
      "inputs": [
        {
          "internalType": "uint256",
          "name": "ticketId",
          "type": "uint256"
        }
      ],
      "name": "emergencyBurnTicket",
      "outputs": [],
      "stateMutability": "nonpayable",
      "type": "function"
    },
    {
      "inputs": [
        {
          "internalType": "uint256",
          "name": "ticketId",
          "type": "uint256"
        }
      ],
      "name": "getTicketProvenance",
      "outputs": [
        {
          "internalType": "address[]",
          "name": "",
          "type": "address[]"
        }
      ],
      "stateMutability": "view",
      "type": "function"
    },
    {
      "inputs": [],
      "name": "krnlSigner",
      "outputs": [
        {
          "internalType": "address",
          "name": "",
          "type": "address"
        }
      ],
      "stateMutability": "view",
      "type": "function"
    },
    {
      "inputs": [
        {
          "internalType": "uint256",
          "name": "ticketId",
          "type": "uint256"
        },
        {
          "internalType": "uint256",
          "name": "price",
          "type": "uint256"
        }
      ],
      "name": "listTicket",
      "outputs": [],
      "stateMutability": "nonpayable",
      "type": "function"
    },
    {
      "inputs": [
        {
          "internalType": "uint256",
          "name": "",
          "type": "uint256"
        }
      ],
      "name": "listings",
      "outputs": [
        {
          "internalType": "address",
          "name": "seller",
          "type": "address"
        },
        {
          "internalType": "uint256",
          "name": "price",
          "type": "uint256"
        },
        {
          "internalType": "bool",
          "name": "active",
          "type": "bool"
        }
      ],
      "stateMutability": "view",
      "type": "function"
    },
    {
      "inputs": [
        {
          "internalType": "address",
          "name": "to",
          "type": "address"
        },
        {
          "internalType": "string",
          "name": "uri",
          "type": "string"
        },
        {
          "internalType": "uint256",
          "name": "eventId",
          "type": "uint256"
        },
        {
          "internalType": "uint256",
          "name": "timestamp",
          "type": "uint256"
        },
        {
          "internalType": "uint256",
          "name": "nonce",
          "type": "uint256"
        },
        {
          "internalType": "bytes",
          "name": "krnlSignature",
          "type": "bytes"
        }
      ],
      "name": "mintTicketWithKrnl",
      "outputs": [
        {
          "internalType": "uint256",
          "name": "",
          "type": "uint256"
        }
      ],
      "stateMutability": "nonpayable",
      "type": "function"
    },
    {
      "inputs": [],
      "name": "owner",
      "outputs": [
        {
          "internalType": "address",
          "name": "",
          "type": "address"
        }
      ],
      "stateMutability": "view",
      "type": "function"
    },
    {
      "inputs": [],
      "name": "poapSoulbound",
      "outputs": [
        {
          "internalType": "bool",
          "name": "",
          "type": "bool"
        }
      ],
      "stateMutability": "view",
      "type": "function"
    },
    {
      "inputs": [],
      "name": "poaps",
      "outputs": [
        {
          "internalType": "contract POAPNFT",
          "name": "",
          "type": "address"
        }
      ],
      "stateMutability": "view",
      "type": "function"
    },
    {
      "inputs": [],
      "name": "renounceOwnership",
      "outputs": [],
      "stateMutability": "nonpayable",
      "type": "function"
    },
    {
      "inputs": [
        {
          "internalType": "address",
          "name": "",
          "type": "address"
        }
      ],
      "name": "reputation",
      "outputs": [
        {
          "internalType": "uint256",
          "name": "",
          "type": "uint256"
        }
      ],
      "stateMutability": "view",
      "type": "function"
    },
    {
      "inputs": [
        {
          "internalType": "uint256",
          "name": "",
          "type": "uint256"
        }
      ],
      "name": "rules",
      "outputs": [
        {
          "internalType": "address",
          "name": "organizer",
          "type": "address"
        },
        {
          "internalType": "uint256",
          "name": "maxResalePrice",
          "type": "uint256"
        },
        {
          "internalType": "uint16",
          "name": "maxTransfers",
          "type": "uint16"
        }
      ],
      "stateMutability": "view",
      "type": "function"
    },
    {
      "inputs": [
        {
          "internalType": "uint256",
          "name": "eventId",
          "type": "uint256"
        },
        {
          "internalType": "address",
          "name": "organizer",
          "type": "address"
        },
        {
          "internalType": "uint256",
          "name": "maxResalePrice",
          "type": "uint256"
        },
        {
          "internalType": "uint16",
          "name": "maxTransfers",
          "type": "uint16"
        }
      ],
      "name": "setEventRules",
      "outputs": [],
      "stateMutability": "nonpayable",
      "type": "function"
    },
    {
      "inputs": [
        {
          "internalType": "address",
          "name": "_s",
          "type": "address"
        }
      ],
      "name": "setKrnlSigner",
      "outputs": [],
      "stateMutability": "nonpayable",
      "type": "function"
    },
    {
      "inputs": [
        {
          "internalType": "uint256",
          "name": "poapId",
          "type": "uint256"
        },
        {
          "internalType": "string",
          "name": "uri",
          "type": "string"
        }
      ],
      "name": "setPOAPURI",
      "outputs": [],
      "stateMutability": "nonpayable",
      "type": "function"
    },
    {
      "inputs": [
        {
          "internalType": "address",
          "name": "who",
          "type": "address"
        },
        {
          "internalType": "uint256",
          "name": "score",
          "type": "uint256"
        }
      ],
      "name": "setReputation",
      "outputs": [],
      "stateMutability": "nonpayable",
      "type": "function"
    },
    {
      "inputs": [
        {
          "internalType": "uint256",
          "name": "ticketId",
          "type": "uint256"
        },
        {
          "internalType": "string",
          "name": "uri",
          "type": "string"
        }
      ],
      "name": "setTicketURI",
      "outputs": [],
      "stateMutability": "nonpayable",
      "type": "function"
    },
    {
      "inputs": [
        {
          "internalType": "uint256",
          "name": "",
          "type": "uint256"
        }
      ],
      "name": "ticketTransfers",
      "outputs": [
        {
          "internalType": "uint16",
          "name": "",
          "type": "uint16"
        }
      ],
      "stateMutability": "view",
      "type": "function"
    },
    {
      "inputs": [],
      "name": "tickets",
      "outputs": [
        {
          "internalType": "contract TicketNFT",
          "name": "",
          "type": "address"
        }
      ],
      "stateMutability": "view",
      "type": "function"
    },
    {
      "inputs": [
        {
          "internalType": "address",
          "name": "newOwner",
          "type": "address"
        }
      ],
      "name": "transferOwnership",
      "outputs": [],
      "stateMutability": "nonpayable",
      "type": "function"
    },
    {
      "inputs": [
        {
          "internalType": "bytes32",
          "name": "",
          "type": "bytes32"
        }
      ],
      "name": "usedProof",
      "outputs": [
        {
          "internalType": "bool",
          "name": "",
          "type": "bool"
        }
      ],
      "stateMutability": "view",
      "type": "function"
    },
    {
      "stateMutability": "payable",
      "type": "receive"
    }
  ],
  "bytecode": "0x60806040526004805460ff60a01b1916600160a01b17905534801561002357600080fd5b506040516155ad3803806155ad833981016040819052610042916102c4565b338061006957604051631e4fbdf760e01b8152600060048201526024015b60405180910390fd5b6100728161025a565b50600180556001600160a01b0381166100cd5760405162461bcd60e51b815260206004820152601460248201527f4b524e4c207369676e65722072657175697265640000000000000000000000006044820152606401610060565b600280546001600160a01b0319166001600160a01b038316179055600454604051600160a01b90910460ff1690610103906102aa565b9015158152602001604051809103906000f080158015610127573d6000803e3d6000fd5b50600480546001600160a01b0319166001600160a01b03929092169190911790556040513090610156906102b7565b6001600160a01b039091168152602001604051809103906000f080158015610182573d6000803e3d6000fd5b50600380546001600160a01b0319166001600160a01b039283161790556004805460405163f2fde38b60e01b815230928101929092529091169063f2fde38b90602401600060405180830381600087803b1580156101df57600080fd5b505af11580156101f3573d6000803e3d6000fd5b505060035460405163f2fde38b60e01b81523060048201526001600160a01b03909116925063f2fde38b9150602401600060405180830381600087803b15801561023c57600080fd5b505af1158015610250573d6000803e3d6000fd5b50505050506102f4565b600080546001600160a01b038381166001600160a01b0319831681178455604051919092169283917f8be0079c531659141344cd1fd0a4f28419497f9722a3daafe3b4186f6b6457e09190a35050565b6118528061222e83390190565b611b2d80613a8083390190565b6000602082840312156102d657600080fd5b81516001600160a01b03811681146102ed57600080fd5b9392505050565b611f2b806103036000396000f3fe60806040526004361061014f5760003560e01c80638bd45c65116100b6578063cd6855a81161006f578063cd6855a81461043b578063d7cd8e151461045b578063de74e57b1461047c578063e5e816a0146104ec578063edbacfc914610530578063f2fde38b1461055057600080fd5b80638bd45c65146103635780638da5cb5b1461039057806397586212146103ae578063b120c16a146103ce578063b9f79451146103ee578063c8cedf1a1461041b57600080fd5b806367dd74ca1161010857806367dd74ca1461028d5780636bb03a87146102a05780636c65d6d5146102c05780636e20ffbd146102ee578063715018a61461032e5780637b6bd7d41461034357600080fd5b806304d6ded41461015b57806321858521146101d35780632b6abcfc1461020b578063305a67a81461022d578063305a905a1461024d57806336eac57b1461026d57600080fd5b3661015657005b600080fd5b34801561016757600080fd5b506101a56101763660046118e9565b6005602052600090815260409020805460018201546002909201546001600160a01b03909116919061ffff1683565b604080516001600160a01b039094168452602084019290925261ffff16908201526060015b60405180910390f35b3480156101df57600080fd5b506003546101f3906001600160a01b031681565b6040516001600160a01b0390911681526020016101ca565b34801561021757600080fd5b5061022b6102263660046118e9565b610570565b005b34801561023957600080fd5b5061022b6102483660046118e9565b6105d9565b34801561025957600080fd5b5061022b610268366004611902565b6106d0565b34801561027957600080fd5b506004546101f3906001600160a01b031681565b61022b61029b3660046118e9565b6108f9565b3480156102ac57600080fd5b5061022b6102bb36600461196b565b610d5d565b3480156102cc57600080fd5b506102e06102db366004611a58565b610dcd565b6040519081526020016101ca565b3480156102fa57600080fd5b5061031e6103093660046118e9565b60086020526000908152604090205460ff1681565b60405190151581526020016101ca565b34801561033a57600080fd5b5061022b611123565b34801561034f57600080fd5b5061022b61035e366004611b08565b611137565b34801561036f57600080fd5b5061038361037e3660046118e9565b6111eb565b6040516101ca9190611b59565b34801561039c57600080fd5b506000546001600160a01b03166101f3565b3480156103ba57600080fd5b506002546101f3906001600160a01b031681565b3480156103da57600080fd5b5061022b6103e9366004611ba5565b611263565b3480156103fa57600080fd5b506102e0610409366004611bd1565b60096020526000908152604090205481565b34801561042757600080fd5b5061022b61043636600461196b565b611287565b34801561044757600080fd5b506102e0610456366004611bf5565b6112c0565b34801561046757600080fd5b5060045461031e90600160a01b900460ff1681565b34801561048857600080fd5b506104c56104973660046118e9565b6007602052600090815260409020805460018201546002909201546001600160a01b03909116919060ff1683565b604080516001600160a01b03909416845260208401929092521515908201526060016101ca565b3480156104f857600080fd5b5061051d6105073660046118e9565b60066020526000908152604090205461ffff1681565b60405161ffff90911681526020016101ca565b34801561053c57600080fd5b5061022b61054b366004611bd1565b6114fa565b34801561055c57600080fd5b5061022b61056b366004611bd1565b61156b565b6105786115a6565b600354604051630852cd8d60e31b8152600481018390526001600160a01b03909116906342966c6890602401600060405180830381600087803b1580156105be57600080fd5b505af11580156105d2573d6000803e3d6000fd5b5050505050565b600081815260076020908152604091829020825160608101845281546001600160a01b031681526001820154928101929092526002015460ff161515918101829052906106585760405162461bcd60e51b8152602060048201526008602482015267696e61637469766560c01b60448201526064015b60405180910390fd5b80516001600160a01b031633148061067a57506000546001600160a01b031633145b6106b45760405162461bcd60e51b815260206004820152600b60248201526a1b9bdd08185b1b1bddd95960aa1b604482015260640161064f565b506000908152600760205260409020600201805460ff19169055565b6106d86115d3565b6003546040516331a9108f60e11b81526004810184905233916001600160a01b031690636352211e90602401602060405180830381865afa158015610721573d6000803e3d6000fd5b505050506040513d601f19601f820116820180604052508101906107459190611c79565b6001600160a01b0316146107875760405162461bcd60e51b81526020600482015260096024820152683737ba1037bbb732b960b91b604482015260640161064f565b60035460405163c20b324d60e01b8152600481018490526000916001600160a01b03169063c20b324d90602401602060405180830381865afa1580156107d1573d6000803e3d6000fd5b505050506040513d601f19601f820116820180604052508101906107f59190611c96565b6000818152600560205260409020549091506001600160a01b03166108535760405162461bcd60e51b8152602060048201526014602482015273195d995b9d081b9bdd0818dbdb999a59dd5c995960621b604482015260640161064f565b60408051606081018252338082526020808301868152600184860181815260008a815260078552879020955186546001600160a01b0319166001600160a01b03909116178655915190850155516002909301805460ff19169315159390931790925582518581529182015284917fb4e5606a376800f822ae7ce93010dddb4ebd38ca6db1bdbc2d0a1de90c9079e4910160405180910390a2506108f560018055565b5050565b6109016115d3565b600081815260076020908152604091829020825160608101845281546001600160a01b031681526001820154928101929092526002015460ff1615159181018290529061097d5760405162461bcd60e51b815260206004820152600a6024820152691b9bdd081b1a5cdd195960b21b604482015260640161064f565b806020015134146109be5760405162461bcd60e51b815260206004820152600b60248201526a77726f6e6720707269636560a81b604482015260640161064f565b60035460405163c20b324d60e01b8152600481018490526000916001600160a01b03169063c20b324d90602401602060405180830381865afa158015610a08573d6000803e3d6000fd5b505050506040513d601f19601f82011682018060405250810190610a2c9190611c96565b600081815260056020908152604091829020825160608101845281546001600160a01b03168152600182015492810183905260029091015461ffff16928101929092529192509015801590610a905750805183516001600160a01b03908116911614155b15610adf57806020015183602001511115610adf5760405162461bcd60e51b815260206004820152600f60248201526e070726963652061626f76652063617608c1b604482015260640161064f565b82516040516000916001600160a01b03169034908381818185875af1925050503d8060008114610b2b576040519150601f19603f3d011682016040523d82523d6000602084013e610b30565b606091505b5050905080610b735760405162461bcd60e51b815260206004820152600f60248201526e1d1c985b9cd9995c8819985a5b1959608a1b604482015260640161064f565b60035484516040516323b872dd60e01b81526001600160a01b039182166004820152336024820152604481018890529116906323b872dd90606401600060405180830381600087803b158015610bc857600080fd5b505af1158015610bdc573d6000803e3d6000fd5b50506003546040516367f444a560e01b8152600481018990523360248201526001600160a01b0390911692506367f444a59150604401600060405180830381600087803b158015610c2c57600080fd5b505af1158015610c40573d6000803e3d6000fd5b5050506000868152600660205260408120805460019350909190610c6990849061ffff16611cc5565b92506101000a81548161ffff021916908361ffff1602179055506000826040015161ffff161115610cf85760408083015160008781526006602052919091205461ffff91821691161115610cf85760405162461bcd60e51b81526020600482015260166024820152751d1c985b9cd9995c881b1a5b5a5d081c995858da195960521b604482015260640161064f565b600085815260076020908152604091829020600201805460ff19169055858101519151918252339187917fc0e076a004e59b819c1099b4799386d7feaa928662e5f3f95af4db1a1502520d910160405180910390a350505050610d5a60018055565b50565b610d656115a6565b600354604051630588253160e21b81526001600160a01b039091169063162094c490610d979085908590600401611d03565b600060405180830381600087803b158015610db157600080fd5b505af1158015610dc5573d6000803e3d6000fd5b505050505050565b6000610dd76115d3565b6000610e3d6040518060400160405280600781526020016621a422a1a5a4a760c91b8152508b8b338a8a8a8a8080601f0160208091040260200160405190810160405280939291908181526020018383808284376000920191909152506115fd92505050565b905080610e8c5760405162461bcd60e51b815260206004820152601a60248201527f696e76616c6964204b524e4c20636865636b696e2070726f6f66000000000000604482015260640161064f565b6040516621a422a1a5a4a760c91b6020820152602781018b90526001600160601b03193360601b166047820152605b81018a9052607b8101879052609b810186905260009060bb0160408051601f1981840301815291815281516020928301206000818152600890935291205490915060ff1615610f395760405162461bcd60e51b815260206004820152600a6024820152691c1c9bdbd9881d5cd95960b21b604482015260640161064f565b60008181526008602052604090819020805460ff1916600117905560035490516331a9108f60e11b8152600481018d905233916001600160a01b031690636352211e90602401602060405180830381865afa158015610f9c573d6000803e3d6000fd5b505050506040513d601f19601f82011682018060405250810190610fc09190611c79565b6001600160a01b0316146110095760405162461bcd60e51b815260206004820152601060248201526f3737ba103a34b1b5b2ba1037bbb732b960811b604482015260640161064f565b60405133908b908d907fde8c2f6a2d30936c8e38a2d3e066971de02dbdbd19d56706073ddc7b40f450ff90600090a460048054604051631183369b60e31b81526000926001600160a01b0390921691638c19b4d89161106e9133918f918f9101611d66565b6020604051808303816000875af115801561108d573d6000803e3d6000fd5b505050506040513d601f19601f820116820180604052508101906110b19190611c96565b33600090815260096020526040812080549293506001929091906110d6908490611d94565b909155505060405133908c9083907f44981ccb831e870c0670435e5363e8d2a145fe091100b74bd7521b9bc565201290600090a49250505061111760018055565b98975050505050505050565b61112b6115a6565b611135600061169a565b565b61113f6115a6565b604080516060810182526001600160a01b038581168252602080830186815261ffff86811685870181815260008c815260058652889020965187546001600160a01b03191696169590951786559151600186015592516002909401805461ffff1916949093169390931790915582518581529081019190915285917fae740032a32e42c6cf021b8fb37c415a30c115eadd082c5a1e1e0ec5bef715a6910160405180910390a250505050565b6003546040516360f1233d60e01b8152600481018390526060916001600160a01b0316906360f1233d90602401600060405180830381865afa158015611235573d6000803e3d6000fd5b505050506040513d6000823e601f3d908101601f1916820160405261125d9190810190611da7565b92915050565b61126b6115a6565b6001600160a01b03909116600090815260096020526040902055565b61128f6115a6565b60048054604051630588253160e21b81526001600160a01b039091169163162094c491610d97918691869101611d03565b60006112ca6115d3565b600061132e604051806040016040528060048152602001631352539560e21b8152506000898d8a8a8a8a8080601f0160208091040260200160405190810160405280939291908181526020018383808284376000920191909152506115fd92505050565b90508061137d5760405162461bcd60e51b815260206004820152601760248201527f696e76616c6964204b524e4c206d696e742070726f6f66000000000000000000604482015260640161064f565b604051631352539560e21b60208201526001600160601b031960608c901b16602482015260388101889052605881018790526078810186905260009060980160408051601f1981840301815291815281516020928301206000818152600890935291205490915060ff16156114215760405162461bcd60e51b815260206004820152600a6024820152691c1c9bdbd9881d5cd95960b21b604482015260640161064f565b600081815260086020526040808220805460ff19166001179055600354905163cf7a314160e01b81526001600160a01b039091169063cf7a314190611470908f908f908f908f90600401611e60565b6020604051808303816000875af115801561148f573d6000803e3d6000fd5b505050506040513d601f19601f820116820180604052508101906114b39190611c96565b90508b6001600160a01b031689827f085ec0eff4bf526b0dd054adffcd8bd8da42126a1133ce302042973f32029fb060405160405180910390a49250505061111760018055565b6115026115a6565b6001600160a01b0381166115495760405162461bcd60e51b815260206004820152600e60248201526d34b73b30b634b21039b4b3b732b960911b604482015260640161064f565b600280546001600160a01b0319166001600160a01b0392909216919091179055565b6115736115a6565b6001600160a01b03811661159d57604051631e4fbdf760e01b81526000600482015260240161064f565b610d5a8161169a565b6000546001600160a01b031633146111355760405163118cdaa760e01b815233600482015260240161064f565b6002600154036115f657604051633ee5aeb560e01b815260040160405180910390fd5b6002600155565b60008088888888888860405160200161161b96959493929190611e96565b604051602081830303815290604052805190602001209050600061166c827f19457468657265756d205369676e6564204d6573736167653a0a3332000000006000908152601c91909152603c902090565b9050600061167a82866116ea565b6002546001600160a01b039081169116149b9a5050505050505050505050565b600080546001600160a01b038381166001600160a01b0319831681178455604051919092169283917f8be0079c531659141344cd1fd0a4f28419497f9722a3daafe3b4186f6b6457e09190a35050565b6000806000806116fa8686611714565b92509250925061170a8282611761565b5090949350505050565b6000806000835160410361174e5760208401516040850151606086015160001a6117408882858561181a565b95509550955050505061175a565b50508151600091506002905b9250925092565b600082600381111561177557611775611edf565b0361177e575050565b600182600381111561179257611792611edf565b036117b05760405163f645eedf60e01b815260040160405180910390fd5b60028260038111156117c4576117c4611edf565b036117e55760405163fce698f760e01b81526004810182905260240161064f565b60038260038111156117f9576117f9611edf565b036108f5576040516335e2f38360e21b81526004810182905260240161064f565b600080807f7fffffffffffffffffffffffffffffff5d576e7357a4501ddfe92f46681b20a084111561185557506000915060039050826118df565b604080516000808252602082018084528a905260ff891692820192909252606081018790526080810186905260019060a0016020604051602081039080840390855afa1580156118a9573d6000803e3d6000fd5b5050604051601f1901519150506001600160a01b0381166118d5575060009250600191508290506118df565b9250600091508190505b9450945094915050565b6000602082840312156118fb57600080fd5b5035919050565b6000806040838503121561191557600080fd5b50508035926020909101359150565b634e487b7160e01b600052604160045260246000fd5b604051601f8201601f1916810167ffffffffffffffff8111828210171561196357611963611924565b604052919050565b6000806040838503121561197e57600080fd5b82359150602083013567ffffffffffffffff81111561199c57600080fd5b8301601f810185136119ad57600080fd5b803567ffffffffffffffff8111156119c7576119c7611924565b6119da601f8201601f191660200161193a565b8181528660208385010111156119ef57600080fd5b816020840160208301376000602083830101528093505050509250929050565b60008083601f840112611a2157600080fd5b50813567ffffffffffffffff811115611a3957600080fd5b602083019150836020828501011115611a5157600080fd5b9250929050565b60008060008060008060008060c0898b031215611a7457600080fd5b8835975060208901359650604089013567ffffffffffffffff811115611a9957600080fd5b611aa58b828c01611a0f565b909750955050606089013593506080890135925060a089013567ffffffffffffffff811115611ad357600080fd5b611adf8b828c01611a0f565b999c989b5096995094979396929594505050565b6001600160a01b0381168114610d5a57600080fd5b60008060008060808587031215611b1e57600080fd5b843593506020850135611b3081611af3565b925060408501359150606085013561ffff81168114611b4e57600080fd5b939692955090935050565b602080825282518282018190526000918401906040840190835b81811015611b9a5783516001600160a01b0316835260209384019390920191600101611b73565b509095945050505050565b60008060408385031215611bb857600080fd5b8235611bc381611af3565b946020939093013593505050565b600060208284031215611be357600080fd5b8135611bee81611af3565b9392505050565b60008060008060008060008060c0898b031215611c1157600080fd5b8835611c1c81611af3565b9750602089013567ffffffffffffffff811115611c3857600080fd5b611c448b828c01611a0f565b90985096505060408901359450606089013593506080890135925060a089013567ffffffffffffffff811115611ad357600080fd5b600060208284031215611c8b57600080fd5b8151611bee81611af3565b600060208284031215611ca857600080fd5b5051919050565b634e487b7160e01b600052601160045260246000fd5b61ffff818116838216019081111561125d5761125d611caf565b60005b83811015611cfa578181015183820152602001611ce2565b50506000910152565b8281526040602082015260008251806040840152611d28816060850160208701611cdf565b601f01601f1916919091016060019392505050565b81835281816020850137506000828201602090810191909152601f909101601f19169091010190565b6001600160a01b0384168152604060208201819052600090611d8b9083018486611d3d565b95945050505050565b8082018082111561125d5761125d611caf565b600060208284031215611db957600080fd5b815167ffffffffffffffff811115611dd057600080fd5b8201601f81018413611de157600080fd5b805167ffffffffffffffff811115611dfb57611dfb611924565b8060051b611e0b6020820161193a565b91825260208184018101929081019087841115611e2757600080fd5b6020850194505b83851015611e555784519250611e4383611af3565b82825260209485019490910190611e2e565b979650505050505050565b6001600160a01b0385168152606060208201819052600090611e859083018587611d3d565b905082604083015295945050505050565b60008751611ea8818460208c01611cdf565b9190910195865250602085019390935260609190911b6001600160601b031916604084015260548301526074820152609401919050565b634e487b7160e01b600052602160045260246000fdfea2646970667358221220d5add607fe11f269450cde65cc091226d5811eded22308abb61641d1f816e07a64736f6c634300081c00336080604052600160085534801561001557600080fd5b5060405161185238038061185283398101604081905261003491610135565b336040518060400160405280600a8152602001690417661726120504f41560b41b81525060405180604001604052806005815260200164041504f41560dc1b815250816000908161008591906101fd565b50600161009282826101fd565b5050506001600160a01b0381166100c357604051631e4fbdf760e01b81526000600482015260240160405180910390fd5b6100cc816100e3565b506009805460ff19169115159190911790556102bb565b600780546001600160a01b038381166001600160a01b0319831681179093556040519116919082907f8be0079c531659141344cd1fd0a4f28419497f9722a3daafe3b4186f6b6457e090600090a35050565b60006020828403121561014757600080fd5b8151801515811461015757600080fd5b9392505050565b634e487b7160e01b600052604160045260246000fd5b600181811c9082168061018857607f821691505b6020821081036101a857634e487b7160e01b600052602260045260246000fd5b50919050565b601f8211156101f857806000526020600020601f840160051c810160208510156101d55750805b601f840160051c820191505b818110156101f557600081556001016101e1565b50505b505050565b81516001600160401b038111156102165761021661015e565b61022a816102248454610174565b846101ae565b6020601f82116001811461025e57600083156102465750848201515b600019600385901b1c1916600184901b1784556101f5565b600084815260208120601f198516915b8281101561028e578785015182556020948501946001909201910161026e565b50848210156102ac5786840151600019600387901b60f8161c191681555b50505050600190811b01905550565b611588806102ca6000396000f3fe608060405234801561001057600080fd5b506004361061012c5760003560e01c806370a08231116100ad578063a22cb46511610071578063a22cb46514610265578063b88d4fde14610278578063c87b56dd1461028b578063e985e9c51461029e578063f2fde38b146102b157600080fd5b806370a082311461021e578063715018a6146102315780638c19b4d8146102395780638da5cb5b1461024c57806395d89b411461025d57600080fd5b8063162094c4116100f4578063162094c4146101bb57806323b872dd146101ce57806342842e0e146101e157806361b8ce8c146101f45780636352211e1461020b57600080fd5b806301ffc9a71461013157806306fdde0314610159578063081812fc1461016e578063095ea7b3146101995780630fad0f51146101ae575b600080fd5b61014461013f366004611011565b6102c4565b60405190151581526020015b60405180910390f35b6101616102e4565b604051610150919061107e565b61018161017c366004611091565b610376565b6040516001600160a01b039091168152602001610150565b6101ac6101a73660046110c6565b61039f565b005b6009546101449060ff1681565b6101ac6101c93660046111a0565b6103ae565b6101ac6101dc3660046111e7565b6103c0565b6101ac6101ef3660046111e7565b610450565b6101fd60085481565b604051908152602001610150565b610181610219366004611091565b610470565b6101fd61022c366004611224565b61047b565b6101ac6104c3565b6101fd61024736600461123f565b6104d7565b6007546001600160a01b0316610181565b610161610513565b6101ac610273366004611277565b610522565b6101ac6102863660046112b3565b61052d565b610161610299366004611091565b610545565b6101446102ac36600461132f565b610550565b6101ac6102bf366004611224565b61057e565b60006102cf826105bc565b806102de57506102de8261060c565b92915050565b6060600080546102f390611362565b80601f016020809104026020016040519081016040528092919081815260200182805461031f90611362565b801561036c5780601f106103415761010080835404028352916020019161036c565b820191906000526020600020905b81548152906001019060200180831161034f57829003601f168201915b5050505050905090565b600061038182610631565b506000828152600460205260409020546001600160a01b03166102de565b6103aa82823361066a565b5050565b6103b6610677565b6103aa82826106a4565b6001600160a01b0382166103ef57604051633250574960e11b8152600060048201526024015b60405180910390fd5b60006103fc8383336106f4565b9050836001600160a01b0316816001600160a01b03161461044a576040516364283d7b60e01b81526001600160a01b03808616600483015260248201849052821660448201526064016103e6565b50505050565b61046b8383836040518060200160405280600081525061052d565b505050565b60006102de82610631565b60006001600160a01b0382166104a7576040516322718ad960e21b8152600060048201526024016103e6565b506001600160a01b031660009081526003602052604090205490565b6104cb610677565b6104d5600061079a565b565b60006104e1610677565b60088054600091826104f28361139c565b91905055905061050284826107ec565b61050c81846106a4565b9392505050565b6060600180546102f390611362565b6103aa338383610806565b6105388484846103c0565b61044a33858585856108a5565b60606102de826109d0565b6001600160a01b03918216600090815260056020908152604080832093909416825291909152205460ff1690565b610586610677565b6001600160a01b0381166105b057604051631e4fbdf760e01b8152600060048201526024016103e6565b6105b98161079a565b50565b60006001600160e01b031982166380ac58cd60e01b14806105ed57506001600160e01b03198216635b5e139f60e01b145b806102de57506301ffc9a760e01b6001600160e01b03198316146102de565b60006001600160e01b03198216632483248360e11b14806102de57506102de826105bc565b6000818152600260205260408120546001600160a01b0316806102de57604051637e27328960e01b8152600481018490526024016103e6565b61046b8383836001610ad9565b6007546001600160a01b031633146104d55760405163118cdaa760e01b81523360048201526024016103e6565b60008281526006602052604090206106bc828261140a565b506040518281527ff8e1a15aba9398e019f0b49df1a4fde98ee17ae345cb5f6b5e2c27f5033e8ce79060200160405180910390a15050565b60006001600160a01b03841615610787576000838152600260205260408120546001600160a01b031660095490915060ff16158061073957506001600160a01b038116155b6107855760405162461bcd60e51b815260206004820152601b60248201527f536f756c626f756e643a206e6f6e2d7472616e7366657261626c65000000000060448201526064016103e6565b505b610792848484610bdf565b949350505050565b600780546001600160a01b038381166001600160a01b0319831681179093556040519116919082907f8be0079c531659141344cd1fd0a4f28419497f9722a3daafe3b4186f6b6457e090600090a35050565b6103aa828260405180602001604052806000815250610cd8565b6001600160a01b03821661083857604051630b61174360e31b81526001600160a01b03831660048201526024016103e6565b6001600160a01b03838116600081815260056020908152604080832094871680845294825291829020805460ff191686151590811790915591519182527f17307eab39ab6107e8899845ad3d59bd9653f200f220920489ca2b5937696c31910160405180910390a3505050565b6001600160a01b0383163b156109c957604051630a85bd0160e11b81526001600160a01b0384169063150b7a02906108e79088908890879087906004016114c9565b6020604051808303816000875af1925050508015610922575060408051601f3d908101601f1916820190925261091f91810190611506565b60015b61098b573d808015610950576040519150601f19603f3d011682016040523d82523d6000602084013e610955565b606091505b50805160000361098357604051633250574960e11b81526001600160a01b03851660048201526024016103e6565b805160208201fd5b6001600160e01b03198116630a85bd0160e11b146109c757604051633250574960e11b81526001600160a01b03851660048201526024016103e6565b505b5050505050565b60606109db82610631565b50600082815260066020526040812080546109f590611362565b80601f0160208091040260200160405190810160405280929190818152602001828054610a2190611362565b8015610a6e5780601f10610a4357610100808354040283529160200191610a6e565b820191906000526020600020905b815481529060010190602001808311610a5157829003601f168201915b505050505090506000610a8c60408051602081019091526000815290565b90508051600003610a9e575092915050565b815115610ad0578082604051602001610ab8929190611523565b60405160208183030381529060405292505050919050565b61079284610cf0565b8080610aed57506001600160a01b03821615155b15610baf576000610afd84610631565b90506001600160a01b03831615801590610b295750826001600160a01b0316816001600160a01b031614155b8015610b3c5750610b3a8184610550565b155b15610b655760405163a9fbf51f60e01b81526001600160a01b03841660048201526024016103e6565b8115610bad5783856001600160a01b0316826001600160a01b03167f8c5be1e5ebec7d5bd14f71427d1e84f3dd0314c0f7b2291e5b200ac8c7c3b92560405160405180910390a45b505b5050600090815260046020526040902080546001600160a01b0319166001600160a01b0392909216919091179055565b6000828152600260205260408120546001600160a01b0390811690831615610c0c57610c0c818486610d64565b6001600160a01b03811615610c4a57610c29600085600080610ad9565b6001600160a01b038116600090815260036020526040902080546000190190555b6001600160a01b03851615610c79576001600160a01b0385166000908152600360205260409020805460010190555b60008481526002602052604080822080546001600160a01b0319166001600160a01b0389811691821790925591518793918516917fddf252ad1be2c89b69c2b068fc378daa952ba7f163c4a11628f55a4df523b3ef91a4949350505050565b610ce28383610dc8565b61046b3360008585856108a5565b6060610cfb82610631565b506000610d1360408051602081019091526000815290565b90506000815111610d33576040518060200160405280600081525061050c565b80610d3d84610e2d565b604051602001610d4e929190611523565b6040516020818303038152906040529392505050565b610d6f838383610ec0565b61046b576001600160a01b038316610d9d57604051637e27328960e01b8152600481018290526024016103e6565b60405163177e802f60e01b81526001600160a01b0383166004820152602481018290526044016103e6565b6001600160a01b038216610df257604051633250574960e11b8152600060048201526024016103e6565b6000610e00838360006106f4565b90506001600160a01b0381161561046b576040516339e3563760e11b8152600060048201526024016103e6565b60606000610e3a83610f23565b600101905060008167ffffffffffffffff811115610e5a57610e5a6110f0565b6040519080825280601f01601f191660200182016040528015610e84576020820181803683370190505b5090508181016020015b600019016f181899199a1a9b1b9c1cb0b131b232b360811b600a86061a8153600a8504945084610e8e57509392505050565b60006001600160a01b038316158015906107925750826001600160a01b0316846001600160a01b03161480610efa5750610efa8484610550565b806107925750506000908152600460205260409020546001600160a01b03908116911614919050565b60008072184f03e93ff9f4daa797ed6e38ed64bf6a1f0160401b8310610f625772184f03e93ff9f4daa797ed6e38ed64bf6a1f0160401b830492506040015b6d04ee2d6d415b85acef81000000008310610f8e576d04ee2d6d415b85acef8100000000830492506020015b662386f26fc100008310610fac57662386f26fc10000830492506010015b6305f5e1008310610fc4576305f5e100830492506008015b6127108310610fd857612710830492506004015b60648310610fea576064830492506002015b600a83106102de5760010192915050565b6001600160e01b0319811681146105b957600080fd5b60006020828403121561102357600080fd5b813561050c81610ffb565b60005b83811015611049578181015183820152602001611031565b50506000910152565b6000815180845261106a81602086016020860161102e565b601f01601f19169290920160200192915050565b60208152600061050c6020830184611052565b6000602082840312156110a357600080fd5b5035919050565b80356001600160a01b03811681146110c157600080fd5b919050565b600080604083850312156110d957600080fd5b6110e2836110aa565b946020939093013593505050565b634e487b7160e01b600052604160045260246000fd5b60008067ffffffffffffffff841115611121576111216110f0565b50604051601f19601f85018116603f0116810181811067ffffffffffffffff82111715611150576111506110f0565b60405283815290508082840185101561116857600080fd5b83836020830137600060208583010152509392505050565b600082601f83011261119157600080fd5b61050c83833560208501611106565b600080604083850312156111b357600080fd5b82359150602083013567ffffffffffffffff8111156111d157600080fd5b6111dd85828601611180565b9150509250929050565b6000806000606084860312156111fc57600080fd5b611205846110aa565b9250611213602085016110aa565b929592945050506040919091013590565b60006020828403121561123657600080fd5b61050c826110aa565b6000806040838503121561125257600080fd5b61125b836110aa565b9150602083013567ffffffffffffffff8111156111d157600080fd5b6000806040838503121561128a57600080fd5b611293836110aa565b9150602083013580151581146112a857600080fd5b809150509250929050565b600080600080608085870312156112c957600080fd5b6112d2856110aa565b93506112e0602086016110aa565b925060408501359150606085013567ffffffffffffffff81111561130357600080fd5b8501601f8101871361131457600080fd5b61132387823560208401611106565b91505092959194509250565b6000806040838503121561134257600080fd5b61134b836110aa565b9150611359602084016110aa565b90509250929050565b600181811c9082168061137657607f821691505b60208210810361139657634e487b7160e01b600052602260045260246000fd5b50919050565b6000600182016113bc57634e487b7160e01b600052601160045260246000fd5b5060010190565b601f82111561046b57806000526020600020601f840160051c810160208510156113ea5750805b601f840160051c820191505b818110156109c957600081556001016113f6565b815167ffffffffffffffff811115611424576114246110f0565b611438816114328454611362565b846113c3565b6020601f82116001811461146c57600083156114545750848201515b600019600385901b1c1916600184901b1784556109c9565b600084815260208120601f198516915b8281101561149c578785015182556020948501946001909201910161147c565b50848210156114ba5786840151600019600387901b60f8161c191681555b50505050600190811b01905550565b6001600160a01b03858116825284166020820152604081018390526080606082018190526000906114fc90830184611052565b9695505050505050565b60006020828403121561151857600080fd5b815161050c81610ffb565b6000835161153581846020880161102e565b83519083019061154981836020880161102e565b0194935050505056fea26469706673582212205481ea4a63e59e79a2a2d327b5de28028bdc55b8176ea441c8136b69e581895464736f6c634300081c0033608060405234801561001057600080fd5b50604051611b2d380380611b2d83398101604081905261002f9161013f565b806040518060400160405280600c81526020016b105d985c9848151a58dad95d60a21b8152506040518060400160405280600381526020016210559560ea1b8152508160009081610080919061020e565b50600161008d828261020e565b5050506001600160a01b0381166100be57604051631e4fbdf760e01b81526000600482015260240160405180910390fd5b6100c7816100ed565b50600980546001600160a01b0319166001600160a01b03929092169190911790556102cc565b600780546001600160a01b038381166001600160a01b0319831681179093556040519116919082907f8be0079c531659141344cd1fd0a4f28419497f9722a3daafe3b4186f6b6457e090600090a35050565b60006020828403121561015157600080fd5b81516001600160a01b038116811461016857600080fd5b9392505050565b634e487b7160e01b600052604160045260246000fd5b600181811c9082168061019957607f821691505b6020821081036101b957634e487b7160e01b600052602260045260246000fd5b50919050565b601f82111561020957806000526020600020601f840160051c810160208510156101e65750805b601f840160051c820191505b8181101561020657600081556001016101f2565b50505b505050565b81516001600160401b038111156102275761022761016f565b61023b816102358454610185565b846101bf565b6020601f82116001811461026f57600083156102575750848201515b600019600385901b1c1916600184901b178455610206565b600084815260208120601f198516915b8281101561029f578785015182556020948501946001909201910161027f565b50848210156102bd5786840151600019600387901b60f8161c191681555b50505050600190811b01905550565b611852806102db6000396000f3fe608060405234801561001057600080fd5b50600436106101585760003560e01c806370a08231116100c3578063c20b324d1161007c578063c20b324d146102e7578063c87b56dd14610307578063cf7a31411461031a578063e985e9c51461032d578063f2f4eb2614610340578063f2fde38b1461035357600080fd5b806370a082311461027f578063715018a6146102a05780638da5cb5b146102a857806395d89b41146102b9578063a22cb465146102c1578063b88d4fde146102d457600080fd5b806323b872dd1161011557806323b872dd1461020057806342842e0e1461021357806342966c681461022657806360f1233d146102395780636352211e1461025957806367f444a51461026c57600080fd5b806301ffc9a71461015d57806306fdde0314610185578063081812fc1461019a578063095ea7b3146101c55780631092f9ee146101da578063162094c4146101ed575b600080fd5b61017061016b366004611207565b610366565b60405190151581526020015b60405180910390f35b61018d610386565b60405161017c9190611274565b6101ad6101a8366004611287565b610418565b6040516001600160a01b03909116815260200161017c565b6101d86101d33660046112bc565b610441565b005b6101ad6101e83660046112e6565b610450565b6101d86101fb3660046113b8565b610488565b6101d861020e3660046113ff565b61049a565b6101d86102213660046113ff565b61052a565b6101d8610234366004611287565b61054a565b61024c610247366004611287565b610580565b60405161017c919061143c565b6101ad610267366004611287565b6105ec565b6101d861027a366004611488565b6105f7565b61029261028d3660046114b4565b610660565b60405190815260200161017c565b6101d86106a8565b6007546001600160a01b03166101ad565b61018d6106bc565b6101d86102cf3660046114cf565b6106cb565b6101d86102e236600461150b565b6106d6565b6102926102f5366004611287565b600a6020526000908152604090205481565b61018d610315366004611287565b6106ee565b610292610328366004611587565b6106f9565b61017061033b3660046115df565b61079e565b6009546101ad906001600160a01b031681565b6101d86103613660046114b4565b6107cc565b600061037182610807565b80610380575061038082610857565b92915050565b60606000805461039590611609565b80601f01602080910402602001604051908101604052809291908181526020018280546103c190611609565b801561040e5780601f106103e35761010080835404028352916020019161040e565b820191906000526020600020905b8154815290600101906020018083116103f157829003601f168201915b5050505050905090565b60006104238261087c565b506000828152600460205260409020546001600160a01b0316610380565b61044c8282336108b5565b5050565b600b602052816000526040600020818154811061046c57600080fd5b6000918252602090912001546001600160a01b03169150829050565b6104906108c2565b61044c82826108ef565b6001600160a01b0382166104c957604051633250574960e11b8152600060048201526024015b60405180910390fd5b60006104d683833361093f565b9050836001600160a01b0316816001600160a01b031614610524576040516364283d7b60e01b81526001600160a01b03808616600483015260248201849052821660448201526064016104c0565b50505050565b610545838383604051806020016040528060008152506106d6565b505050565b6009546001600160a01b031633146105745760405162461bcd60e51b81526004016104c090611643565b61057d81610954565b50565b6000818152600b60209081526040918290208054835181840281018401909452808452606093928301828280156105e057602002820191906000526020600020905b81546001600160a01b031681526001909101906020018083116105c2575b50505050509050919050565b60006103808261087c565b6009546001600160a01b031633146106215760405162461bcd60e51b81526004016104c090611643565b6000918252600b6020908152604083208054600181018255908452922090910180546001600160a01b0319166001600160a01b03909216919091179055565b60006001600160a01b03821661068c576040516322718ad960e21b8152600060048201526024016104c0565b506001600160a01b031660009081526003602052604090205490565b6106b06108c2565b6106ba600061098f565b565b60606001805461039590611609565b61044c3383836109e1565b6106e184848461049a565b6105243385858585610a80565b606061038082610bab565b6009546000906001600160a01b031633146107265760405162461bcd60e51b81526004016104c090611643565b6008805490600061073683611666565b90915550506008546107488582610cb4565b61075281856108ef565b6000818152600a60209081526040808320869055600b82528220805460018101825590835291200180546001600160a01b0387166001600160a01b031990911617905590509392505050565b6001600160a01b03918216600090815260056020908152604080832093909416825291909152205460ff1690565b6107d46108c2565b6001600160a01b0381166107fe57604051631e4fbdf760e01b8152600060048201526024016104c0565b61057d8161098f565b60006001600160e01b031982166380ac58cd60e01b148061083857506001600160e01b03198216635b5e139f60e01b145b8061038057506301ffc9a760e01b6001600160e01b0319831614610380565b60006001600160e01b03198216632483248360e11b1480610380575061038082610807565b6000818152600260205260408120546001600160a01b03168061038057604051637e27328960e01b8152600481018490526024016104c0565b6105458383836001610cce565b6007546001600160a01b031633146106ba5760405163118cdaa760e01b81523360048201526024016104c0565b600082815260066020526040902061090782826116d4565b506040518281527ff8e1a15aba9398e019f0b49df1a4fde98ee17ae345cb5f6b5e2c27f5033e8ce79060200160405180910390a15050565b600061094c848484610dd4565b949350505050565b6000610963600083600061093f565b90506001600160a01b03811661044c57604051637e27328960e01b8152600481018390526024016104c0565b600780546001600160a01b038381166001600160a01b0319831681179093556040519116919082907f8be0079c531659141344cd1fd0a4f28419497f9722a3daafe3b4186f6b6457e090600090a35050565b6001600160a01b038216610a1357604051630b61174360e31b81526001600160a01b03831660048201526024016104c0565b6001600160a01b03838116600081815260056020908152604080832094871680845294825291829020805460ff191686151590811790915591519182527f17307eab39ab6107e8899845ad3d59bd9653f200f220920489ca2b5937696c31910160405180910390a3505050565b6001600160a01b0383163b15610ba457604051630a85bd0160e11b81526001600160a01b0384169063150b7a0290610ac2908890889087908790600401611793565b6020604051808303816000875af1925050508015610afd575060408051601f3d908101601f19168201909252610afa918101906117d0565b60015b610b66573d808015610b2b576040519150601f19603f3d011682016040523d82523d6000602084013e610b30565b606091505b508051600003610b5e57604051633250574960e11b81526001600160a01b03851660048201526024016104c0565b805160208201fd5b6001600160e01b03198116630a85bd0160e11b14610ba257604051633250574960e11b81526001600160a01b03851660048201526024016104c0565b505b5050505050565b6060610bb68261087c565b5060008281526006602052604081208054610bd090611609565b80601f0160208091040260200160405190810160405280929190818152602001828054610bfc90611609565b8015610c495780601f10610c1e57610100808354040283529160200191610c49565b820191906000526020600020905b815481529060010190602001808311610c2c57829003601f168201915b505050505090506000610c6760408051602081019091526000815290565b90508051600003610c79575092915050565b815115610cab578082604051602001610c939291906117ed565b60405160208183030381529060405292505050919050565b61094c84610ecd565b61044c828260405180602001604052806000815250610f42565b8080610ce257506001600160a01b03821615155b15610da4576000610cf28461087c565b90506001600160a01b03831615801590610d1e5750826001600160a01b0316816001600160a01b031614155b8015610d315750610d2f818461079e565b155b15610d5a5760405163a9fbf51f60e01b81526001600160a01b03841660048201526024016104c0565b8115610da25783856001600160a01b0316826001600160a01b03167f8c5be1e5ebec7d5bd14f71427d1e84f3dd0314c0f7b2291e5b200ac8c7c3b92560405160405180910390a45b505b5050600090815260046020526040902080546001600160a01b0319166001600160a01b0392909216919091179055565b6000828152600260205260408120546001600160a01b0390811690831615610e0157610e01818486610f5a565b6001600160a01b03811615610e3f57610e1e600085600080610cce565b6001600160a01b038116600090815260036020526040902080546000190190555b6001600160a01b03851615610e6e576001600160a01b0385166000908152600360205260409020805460010190555b60008481526002602052604080822080546001600160a01b0319166001600160a01b0389811691821790925591518793918516917fddf252ad1be2c89b69c2b068fc378daa952ba7f163c4a11628f55a4df523b3ef91a4949350505050565b6060610ed88261087c565b506000610ef060408051602081019091526000815290565b90506000815111610f105760405180602001604052806000815250610f3b565b80610f1a84610fbe565b604051602001610f2b9291906117ed565b6040516020818303038152906040525b9392505050565b610f4c8383611051565b610545336000858585610a80565b610f658383836110b6565b610545576001600160a01b038316610f9357604051637e27328960e01b8152600481018290526024016104c0565b60405163177e802f60e01b81526001600160a01b0383166004820152602481018290526044016104c0565b60606000610fcb83611119565b600101905060008167ffffffffffffffff811115610feb57610feb611308565b6040519080825280601f01601f191660200182016040528015611015576020820181803683370190505b5090508181016020015b600019016f181899199a1a9b1b9c1cb0b131b232b360811b600a86061a8153600a850494508461101f57509392505050565b6001600160a01b03821661107b57604051633250574960e11b8152600060048201526024016104c0565b60006110898383600061093f565b90506001600160a01b03811615610545576040516339e3563760e11b8152600060048201526024016104c0565b60006001600160a01b0383161580159061094c5750826001600160a01b0316846001600160a01b031614806110f057506110f0848461079e565b8061094c5750506000908152600460205260409020546001600160a01b03908116911614919050565b60008072184f03e93ff9f4daa797ed6e38ed64bf6a1f0160401b83106111585772184f03e93ff9f4daa797ed6e38ed64bf6a1f0160401b830492506040015b6d04ee2d6d415b85acef81000000008310611184576d04ee2d6d415b85acef8100000000830492506020015b662386f26fc1000083106111a257662386f26fc10000830492506010015b6305f5e10083106111ba576305f5e100830492506008015b61271083106111ce57612710830492506004015b606483106111e0576064830492506002015b600a83106103805760010192915050565b6001600160e01b03198116811461057d57600080fd5b60006020828403121561121957600080fd5b8135610f3b816111f1565b60005b8381101561123f578181015183820152602001611227565b50506000910152565b60008151808452611260816020860160208601611224565b601f01601f19169290920160200192915050565b602081526000610f3b6020830184611248565b60006020828403121561129957600080fd5b5035919050565b80356001600160a01b03811681146112b757600080fd5b919050565b600080604083850312156112cf57600080fd5b6112d8836112a0565b946020939093013593505050565b600080604083850312156112f957600080fd5b50508035926020909101359150565b634e487b7160e01b600052604160045260246000fd5b60008067ffffffffffffffff84111561133957611339611308565b50604051601f19601f85018116603f0116810181811067ffffffffffffffff8211171561136857611368611308565b60405283815290508082840185101561138057600080fd5b83836020830137600060208583010152509392505050565b600082601f8301126113a957600080fd5b610f3b8383356020850161131e565b600080604083850312156113cb57600080fd5b82359150602083013567ffffffffffffffff8111156113e957600080fd5b6113f585828601611398565b9150509250929050565b60008060006060848603121561141457600080fd5b61141d846112a0565b925061142b602085016112a0565b929592945050506040919091013590565b602080825282518282018190526000918401906040840190835b8181101561147d5783516001600160a01b0316835260209384019390920191600101611456565b509095945050505050565b6000806040838503121561149b57600080fd5b823591506114ab602084016112a0565b90509250929050565b6000602082840312156114c657600080fd5b610f3b826112a0565b600080604083850312156114e257600080fd5b6114eb836112a0565b91506020830135801515811461150057600080fd5b809150509250929050565b6000806000806080858703121561152157600080fd5b61152a856112a0565b9350611538602086016112a0565b925060408501359150606085013567ffffffffffffffff81111561155b57600080fd5b8501601f8101871361156c57600080fd5b61157b8782356020840161131e565b91505092959194509250565b60008060006060848603121561159c57600080fd5b6115a5846112a0565b9250602084013567ffffffffffffffff8111156115c157600080fd5b6115cd86828701611398565b93969395505050506040919091013590565b600080604083850312156115f257600080fd5b6115fb836112a0565b91506114ab602084016112a0565b600181811c9082168061161d57607f821691505b60208210810361163d57634e487b7160e01b600052602260045260246000fd5b50919050565b6020808252600990820152686f6e6c7920636f726560b81b604082015260600190565b60006001820161168657634e487b7160e01b600052601160045260246000fd5b5060010190565b601f82111561054557806000526020600020601f840160051c810160208510156116b45750805b601f840160051c820191505b81811015610ba457600081556001016116c0565b815167ffffffffffffffff8111156116ee576116ee611308565b611702816116fc8454611609565b8461168d565b6020601f821160018114611736576000831561171e5750848201515b600019600385901b1c1916600184901b178455610ba4565b600084815260208120601f198516915b828110156117665787850151825560209485019460019092019101611746565b50848210156117845786840151600019600387901b60f8161c191681555b50505050600190811b01905550565b6001600160a01b03858116825284166020820152604081018390526080606082018190526000906117c690830184611248565b9695505050505050565b6000602082840312156117e257600080fd5b8151610f3b816111f1565b600083516117ff818460208801611224565b835190830190611813818360208801611224565b0194935050505056fea2646970667358221220815645e548e043fd5796ca81272d875b67157a070ff8a2b2f5874e27477eb66364736f6c634300081c0033",
  "linkReferences": {},
  "deployedLinkReferences": {}
}